:100000000C9477000C949F000C949F000C949F001C
:100010000C949F000C949F000C949F000C949F00E4
:100020000C949F000C949F000C949F000C949F00D4
:100030000C949F000C949F000C949F000C949F00C4
:100040000C940A0A0C949F000C94FE0C0C94300D36
:100050000C949F000C949F000C949F000C949F00A4
:100060000C9475040C949F005E076207250728070F
:100070002B072F07330736073A073D07400743078B
:1000800046074A074E075207550758070000000861
:10009000000201000003040700000000000000004F
:1000A000010204081020408001020408102001020F
:1000B00004081020040404040404040402020202DC
:1000C00002020303030303030000000023002600D1
:1000D000290000000000250028002B00000000007F
:1000E000240027002A004101C503E909600D1124FD
:1000F0001FBECFEFD8E0DEBFCDBF13E0A0E0B1E080
:10010000ECE8FEE102C005900D92AC33B107D9F7DF
:1001100025E0ACE3B3E001C01D92AD34B207E1F7D6
:1001200010E0CEEED0E004C02297FE010E94400F06
:10013000C63ED107C9F70E94A40D0C94440F0C943D
:1001400000008EBD00000DB407FEFDCF8EB50895F2
:1001500048EB5BE060E070E08FE594E00E943709D7
:1001600020E032EC41E050E060EB74E08FE594E099
:100170000E944D0961E08FE594E00E940D098823FB
:1001800091F060E071E08091A1049091A2040E943E
:10019000F10D6AE070E080E090E00E94830A8FE554
:1001A00094E00E94360941E060E08FE594E00E940F
:1001B000CB0926E040E052EC61E070E080EB94E097
:1001C0000E949C0C81E080937C038093680361E033
:1001D00088E00E94210B61E08DE00E94210B60E02D
:1001E00085E00E94210B61E083E00E94210B61E029
:1001F00086E00E94210B61E086E00E945A0B85E0B8
:100200000E94900B909362038093610340E06FE043
:1002100085E893E00E948108882399F062E171E00B
:1002200080EB94E00E94F70D6BE271E080EB94E0CC
:100230000E94F70D64E670E080E090E00E94830A7F
:10024000E5CF66E471E080EB94E00E94F70D109238
:100250007B0310927A0364E670E080E090E00E94F5
:10026000830A0E94540A6093640370936503809329
:1002700066039093670367E070E087E993E00C946E
:10028000A10368E085E893E00E947E0880915A030C
:1002900080934F03809159038093500380915803BA
:1002A00080935103809157038093520380915603AA
:1002B00080935303809155038093540380914E03A0
:1002C0008093430380914D038093440380914C03BA
:1002D0008093450380914B038093460380914A03AA
:1002E0008093470380914903809348038091600382
:1002F0008093400380915E038093410380915C036F
:100300008093420380915F0380933D0380915D035E
:1003100080933E0380915B0380933F0308950F9386
:100320001F93CF93DF9310923C0310927F031092A0
:100330007E0381E080937D031092960385E893E02D
:100340000E94FF08833071F44DE653E064E873E0E7
:1003500085E893E00E94C90885E893E00E940709B8
:100360006093960380919603813009F002C19091C9
:100370006D03911122C010926303109269031092D1
:100380006B0310926C0380936A03109273031092B4
:1003900074031092750368E070E087E993E00E94AF
:1003A000AD0343E050E063E773E087E993E00E9428
:1003B000180387E993E00E94C20380916D038230A5
:1003C00019F580916303C1E08C17F1F063E672E0E8
:1003D00080EB94E00E94F10D10927303C0937403BC
:1003E0001092750368E070E087E993E00E94AD0326
:1003F00043E050E063E773E087E993E00E9418036D
:1004000087E993E00E94C20380916D038530E9F48F
:10041000809163038130C9F01092730382E080936E
:1004200074031092750368E070E087E993E00E941E
:10043000AD0343E050E063E773E087E993E00E9497
:10044000180387E993E00E94C20380916D03833013
:1004500069F460E086E00E945A0B81E080936B03B0
:100460006DE772E080EB94E00E94F70D80916D03E0
:10047000843069F461E086E00E945A0B81E0809349
:100480006B0362E972E080EB94E00E94F70D8091CB
:100490006D03813009F06DC080916E036091780327
:1004A00070917903680F711D882777FD8095982FCB
:1004B0000E94B80E6093800370938103809382033F
:1004C0009093830380916F0390E0909372038093E5
:1004D000710380917003811102C060E001C061E08E
:1004E00083E00E945A0B6091800370918103809198
:1004F0008203909183030E948A0E6093730310928B
:100500007403809171038093750303E713E0C0E0E7
:10051000D0E04AE050E0BE0180EB94E00E94830E00
:1005200060E672E080EB94E00E94F10DF8016191C9
:100530008F014AE050E080EB94E00E946C0E21961F
:10054000C330D10531F768E070E087E993E00E949D
:10055000AD0343E050E063E773E087E993E00E9476
:10056000180387E993E0DF91CF911F910F910C94CD
:10057000C203DF91CF911F910F9108958091CB031A
:1005800090E02091CC03821B910908952091CC0327
:100590008091CB03281750F4E22FF0E0E353FC4F97
:1005A000808190E02F5F2093CC0308958FEF9FEF21
:1005B0000895E091CC038091CB03E81730F4F0E08C
:1005C000E353FC4F808190E008958FEF9FEF0895F3
:1005D0000895E091A303F091A4033097E1F03091E6
:1005E000CC032091CB033217B0F040E0242F30E051
:1005F0002617370754F4DC01A20FB31F5C91D90111
:10060000A353BC4F5C934F5FF1CF1092CC03609328
:10061000CB03CB0109940895E091A503F091A603C3
:10062000309729F01092A9031092A8030994089515
:10063000CF92DF92EF92FF920F931F93CF93DF93AE
:100640007C01CB018A012091A703222389F0EB01D1
:100650006B01C40ED51ECC15DD0569F06991D7017B
:10066000ED91FC910190F081E02DC7010995F3CF48
:10067000642F0E944204C801DF91CF911F910F9116
:10068000FF90EF90DF90CF900895CF93DF931F926C
:10069000CDB7DEB769832091A7032223D1F0209143
:1006A000A803203240F021E030E0FC0133832283B4
:1006B00080E090E015C08091A903E82FF0E0E655B6
:1006C000FC4F998190838F5F8093A9038093A80347
:1006D00005C061E0CE0101960E94420481E090E0F5
:1006E0000F90DF91CF910895FC011382128248EEA2
:1006F00053E060E070E044835583668377838AEA41
:1007000092E09183808308951092CC031092CB03E2
:100710001092A9031092A8030C94C903CF93DF93FE
:10072000EC01862F0E94E7038CE093E00E946004B6
:1007300089EE92E00E945B04CE01DF91CF910C9490
:1007400084030C948E0381E08093A7036093CA0313
:100750001092A9031092A80308950C94A3030F9379
:10076000062F21E04091A8036AEA73E08091CA0352
:100770000E94EB031092A9031092A8031092A70302
:100780000F91089561E00C94AF0387E993E00C9416
:10079000740310925A0481E0809358041092570415
:1007A00061E082E10E945A0B61E083E10E945A0BF2
:1007B000E9EBF0E080818E7F808380818D7F808374
:1007C00088E48093B80085E48093BC000895880F86
:1007D0008093BA0008950F93413208F04AC0909177
:1007E0005A049111FCCF92E090935A04009358045C
:1007F0009FEF9093ED031092320440933104FB017C
:1008000063E374E0DB019A2F961B941718F491911F
:100810009D93F9CF1092590490915904880F892B18
:100820008093590480915704813061F410925704E9
:10083000809159048093BB008091BC0083FDF8CF68
:1008400085EC01C085EE8093BC00222321F08091CD
:100850005A048230E1F38091ED038F3F61F0809183
:10086000ED03803251F08091ED03803341F483E059
:1008700007C081E005C080E003C082E001C084E0E1
:100880000F910895613298F420915A04243089F42C
:1008900060930F04FC0181E194E0DC012A2F281B06
:1008A000261718F421912D93F9CF80E0089581E067
:1008B000089582E00895909354048093530408951A
:1008C0009093560480935504089585ED8093BC0061
:1008D0008091BC0084FDFCCF10925A04089585ECF1
:1008E0008093BC0010925A0408951F920F920FB685
:1008F0000F9211242F933F934F935F936F937F93A6
:100900008F939F93AF93BF93EF93FF938091B90021
:10091000887F803609F49EC078F5883209F45DC07E
:1009200090F4803109F456C038F4882309F4F5C0F6
:10093000883009F44FC0F5C0883109F44EC08032C8
:1009400009F45FC0EEC0803409F46AC058F4803303
:1009500009F457C0883309F0E4C08093ED030E9486
:100960006F04DFC0803509F44FC0883509F45DC0DD
:10097000883409F0D6C0D3C0883909F4C4C0A8F4BB
:10098000883709F467C038F4883609F463C08037C3
:1009900009F460C0C6C0883809F4B5C0803909F4CC
:1009A0005FC0803809F0BDC05BC0803B09F483C0E4
:1009B00038F4803A09F466C0883A09F47CC0B1C0C2
:1009C000803C09F4A4C0883C09F4A1C0883B09F428
:1009D00087C0A7C08091590410C0909132048091C3
:1009E0003104981770F5E091320481E08E0F809306
:1009F0003204F0E0ED5CFB4F80818093BB0085EC1E
:100A000083C08093ED038BC0E091320481E08E0FB0
:100A1000809332048091BB00F0E0ED5CFB4F80835B
:100A200090913204809131046BC0E091320481E0F6
:100A30008E0F809332048091BB00F0E0ED5CFB4FA1
:100A400080838091580481116AC081E080935704AB
:100A500084EA5EC083E080935A041092EE03CFCF05
:100A60008091EE03803208F04EC0E091EE0381E009
:100A70008E0F8093EE038091BB00F0E0E151FC4FBC
:100A80008083BDCF0E946F048091EE03803230F4EA
:100A9000E091EE03F0E0E151FC4F10826091EE0333
:100AA00070E0E0915304F09154048FEE93E00995C7
:100AB0001092EE0336C084E080935A041092100422
:100AC00010920F04E0915504F0915604099580911D
:100AD0000F04811105C081E080930F04109211046E
:100AE000E091100481E08E0F80931004F0E0EF5E3F
:100AF000FB4F80818093BB009091100480910F0484
:100B0000981708F47CCF85E88093BC000AC085EC78
:100B10008093BC0010925A0404C01092ED030E940E
:100B20006504FF91EF91BF91AF919F918F917F915C
:100B30006F915F914F913F912F910F900FBE0F904A
:100B40001F901895CF93CFB7F89480915E048111D0
:100B500027C0EEEBF0E08491EAEAF0E09491E82F10
:100B6000F0E0EE0FFF1FE452FF4FA591B4918C917E
:100B7000892321F461E08AE00E945A0B61E08AE057
:100B80000E94210B8CB580618CBD8CB580648CBDBE
:100B900061E08DE00E94210B61E08BE00E94210B5F
:100BA00080915E048F5F80935E04CFBFCF910895E4
:100BB00020915D04222399F03FB7F89420915D04C1
:100BC000213059F42DB320935B044DB320915C0484
:100BD000209524232DBB3FBF02C030935B048CBD06
:100BE0009DBD089580915D04882361F09FB7F894BE
:100BF00020915D0480915B04213019F48DBB9FBF6F
:100C000008958FBF0895CF93DF93EC0180E590E0C6
:100C10000E94D80560E088890E945A0B80EC0E94EF
:100C2000A10061E088890E945A0B0E94F2056AE0E7
:100C300070E080E090E0DF91CF910C94830A1F93E5
:100C4000CF93DF93EC01162F80E590E00E94D8054A
:100C500060E088890E945A0B83E00E94A100812FE6
:100C60000E94A10080E00E94A100182F61E0888905
:100C70000E945A0B0E94F205812FDF91CF911F91A4
:100C80000895CF92DF92EF92FF920F931F93CF932D
:100C9000DF9300D0CDB7DEB78C01F62EE22E80E5D3
:100CA00090E049835A830E94D80560E0F80180896A
:100CB0000E945A0B83E00E94A1008F2D0E94A10088
:100CC0004981C42E5A81D52EF12CFE1459F0F8E03A
:100CD000FF1641F080E00E94A100F60181936F01B0
:100CE000F394F3CF61E0F80180890E945A0B0F90D2
:100CF0000F90DF91CF911F910F91FF90EF90DF90B8
:100D0000CF900C94F205EF92FF921F93CF93DF9355
:100D10001F92CDB7DEB77C01162F80E590E04983A6
:100D20000E94D80560E0F70180890E945A0B82E09A
:100D30000E94A100812F0E94A1004981842F0E945E
:100D4000A10061E0F70180890E945A0B0F90DF91AA
:100D5000CF911F91FF90EF900C94F205EF92FF92CC
:100D60001F93CF93DF9300D0CDB7DEB77C01162F52
:100D700080E590E02A8349830E94D80560E0F7016E
:100D800080890E945A0B85E00E94A100812F0E9459
:100D9000A1004981842F0E94A1002A81822F0E94F4
:100DA000A10061E0F70180890E945A0B0F900F901B
:100DB000DF91CF911F91FF90EF900C94F2051F935C
:100DC000CF93DF93EC0180E590E00E94D80560E0CE
:100DD00088890E945A0B80EA0E94A10080E00E944C
:100DE000A100182F61E088890E945A0B0E94F20529
:100DF000812FDF91CF911F9108951F93CF93DF93A0
:100E0000EC01162F262F40EE6FE00E94AE066FE039
:100E1000CE010E941F06982F907E81E0911301C0A1
:100E200080E0DF91CF911F9108950F931F93CF938F
:100E3000DF93EC01462F50E0FA013197E231F105E2
:100E4000D8F5EC5CFF4F0C943E0F17E80FEF05C090
:100E500017E00AEB02C015E801EF4FE036C017E0DB
:100E60000EEB49E032C017E80FEF02C017E80AEFB7
:100E700047E02BC017E80FEF0BC017E00EEB08C0E0
:100E800017E00DEA05C017E80AEF02C016E800EF08
:100E900043E01BC017E80AEF41E017C015E801EF77
:100EA00041E413C016E800EF05C014E000EA02C0F8
:100EB00012E800ED40E009C081E016C017E80FEF2E
:100EC0004FE303C017E80FEF4FE16AE2CE010E9443
:100ED0008306402F69E2CE010E948306412F68E21B
:100EE000CE010E94830680E0DF91CF911F910F9188
:100EF00008951F93CF93DF93EC0110E340E0612F3F
:100F0000CE010E94830660E1610F40E0CE010E94A5
:100F1000830660E2610F40E0CE010E9483061F5FFE
:100F20001E3361F740E060E6CE010E94830640E098
:100F300060E7CE01DF91CF911F910C948306FF9261
:100F40000F931F93CF93DF93EC01F62E042F0E9493
:100F5000030660E8CE010E94FD06182F6AE070E0EB
:100F600080E090E011110CC00E94830A6F2DCE0129
:100F70000E941507882339F06AE070E080E090E075
:100F80000E94830A28C06AE070E080E090E00E943E
:100F9000830ACE010E94790743E06BE2CE010E94F2
:100FA000830624E044E660E6CE010E94AE0620E01F
:100FB00040E660E7CE010E94AE06602FCE010E949F
:100FC000FD06C82F8823C1F26AE070E080E090E05F
:100FD0000E94830A1C2F812FDF91CF911F910F91C7
:100FE000FF900895EF92FF920F931F93CF93DF939B
:100FF00000D000D0CDB7DEB77A018901FA011082A6
:10100000F901108211821282138224E0AE014F5F37
:101010005F4F0E9441062A813981822F90E045E08E
:10102000959587954A95E1F7F8E03F9F800D911DD2
:101030001124AA2797FDA095BA2FF80180839183E8
:10104000A283B38323FF25C062E0880F991FAA1FE4
:10105000BB1F6A95D1F72370820F911DA11DB11D91
:10106000BA2FA92F982F88272B81820F911DA11DA0
:10107000B11DBA2FA92F982F88272C81820F911D7F
:10108000A11DB11D80839183A283B38381E0F70109
:1010900080830F900F900F900F90DF91CF911F9151
:1010A0000F91FF90EF9008950F931F93CF93DF93CD
:1010B000EC01162F9C012F5F3F4FAC010E94F207FD
:1010C0006FEF610FCE010E941F06082F64E0610FD1
:1010D000CE010E941F0603FB002700F90E87282F70
:1010E0002F702D83AE014A5F5F4F65E0610FCE0127
:1010F000DF91CF911F910F910C944106FC01608B01
:101100000895EF92FF921F93CF93DF931F92CDB775
:10111000DEB77C01162F61E0FC01808949830E94C3
:10112000210B61E0F70180890E945A0B0E94A20501
:101130004981612FC7010E949F0791E0811101C081
:1011400090E0892F0F90DF91CF911F91FF90EF904A
:101150000895CF93DF93EC010E94DF0680FF07C064
:1011600061E6CE010E94540820E041E008C081FF02
:101170000CC061E7CE010E94540820E042E06CE21E
:10118000CE010E94AE0680E001C084E0DF91CF91E5
:101190000895EF92FF920F931F93CF93DF9300D0A8
:1011A000CDB7DEB77C018B0149835A830E94A90821
:1011B00049815A81811118C0D70115969C91F80177
:1011C0009083FA0120E030E0D70115964C9150E071
:1011D000241735075CF4D701A20FB31F16969C9114
:1011E00091932F5F3F4FF0CFF80110820F900F9037
:1011F000DF91CF911F910F91FF90EF9008950E9482
:10120000DF06837011F083E0089584E00895FC0107
:10121000618172818381948108950F931F93CF938D
:10122000DF93EC01611116C00E94540A0A811B81F0
:101230002C813D81601B710B820B930B6233710516
:101240008105910538F463E070E080E090E00E9451
:10125000830AEACF0E94540A6A837B838C839D832E
:1012600081E0DF91CF911F910F9108950895FC01C6
:10127000EC5BFF4F1082118212821382FC011282FA
:10128000138214821582411551056105710521F003
:10129000CB01BA010C94830A0895FB01BA01A9019C
:1012A0008E5B9F4FDC01ED93FC9326E0CF010C9405
:1012B0009C0C8E5B9F4FDC018D919C91DC01ED912C
:1012C000FC910680F781E02D099508958E5B9F4F74
:1012D000DC018D919C91DC01ED91FC910480F58104
:1012E000E02D099508951F93CF93DF93EC01162FFE
:1012F0000E94540A6A837B838C839D83CE5BDF4F7D
:1013000068EC72E0888199810E94F10D4AE050E01A
:10131000612F888199810E94650E6FEC72E088814F
:1013200099810E94F10D62E370E080E090E0DF912E
:10133000CF911F910C94830A1F93CF93DF93EC01FD
:10134000162F8E89882311F1CE010E946609811122
:1013500002C085E61CC0CE010E9466098823C9F33D
:10136000CE010E945909883689F048F4883569F021
:10137000833689F7612FCE010E94730907C0813738
:1013800029F0863741F786E702C01E8A83E6DF919F
:10139000CF911F9108950F931F93CF93DF931F92C7
:1013A000CDB7DEB78C01611108C0F801468B0F90F4
:1013B000DF91CF911F910F91089581E0F801868B05
:1013C00060E0C80149830E949C0949818336C1F7C6
:1013D000ECCF10926504109266041092670410928C
:1013E00068041092690410926A0410926B041092BF
:1013F0006C0410926D0410926E0410926F0410929F
:10140000700410927104109272041092730410927E
:10141000740408951F920F920FB60F9211242F9308
:101420003F938F939F93AF93BF938091A804909124
:10143000A904A091AA04B091AB043091A70423E0C1
:10144000230F2D3720F40196A11DB11D05C026E8FC
:10145000230F0296A11DB11D2093A7048093A80419
:101460009093A904A093AA04B093AB048091AC0418
:101470009091AD04A091AE04B091AF040196A11D6E
:10148000B11D8093AC049093AD04A093AE04B093CF
:10149000AF04BF91AF919F918F913F912F910F908A
:1014A0000FBE0F901F9018952FB7F8946091A80465
:1014B0007091A9048091AA049091AB042FBF089564
:1014C0003FB7F8948091AC049091AD04A091AE0424
:1014D000B091AF0426B5A89B05C02F3F19F0019627
:1014E000A11DB11D3FBF6627782F892F9A2F620F4C
:1014F000711D811D911D42E0660F771F881F991F86
:101500004A95D1F708958F929F92AF92BF92CF9252
:10151000DF92EF92FF926B017C010E94600A4B0107
:101520005C01C114D104E104F104F1F00E94890EC0
:101530000E94600A681979098A099B09683E73400C
:101540008105910570F321E0C21AD108E108F10884
:1015500088EE880E83E0981EA11CB11CC114D10432
:10156000E104F10429F7DDCFFF90EF90DF90CF90F9
:10157000BF90AF909F908F900895789484B58260CB
:1015800084BD84B5816084BD85B5826085BD85B527
:10159000816085BDEEE6F0E0808181608083E1E8D6
:1015A000F0E010828081826080838081816080830E
:1015B000E0E8F0E0808181608083E1EBF0E0808111
:1015C00084608083E0EBF0E0808181608083EAE7E3
:1015D000F0E080818460808380818260808380816C
:1015E000816080838081806880831092C10008952B
:1015F000833081F028F4813099F08230A1F0089591
:101600008730A9F08830B9F08430D1F4809180001F
:101610008F7D03C0809180008F7780938000089534
:1016200084B58F7702C084B58F7D84BD0895809185
:10163000B0008F7703C08091B0008F7D8093B000A1
:101640000895CF93DF9390E0FC01E056FF4F249183
:10165000FC01EC54FF4F8491882349F190E0880FFE
:10166000991FFC01E452FF4FA591B4918E529F4FF8
:10167000FC01C591D4919FB7611108C0F8948C9179
:10168000209582238C93888182230AC0623051F492
:10169000F8948C91322F309583238C938881822B00
:1016A000888304C0F8948C91822B8C939FBFDF9128
:1016B000CF9108950F931F93CF93DF931F92CDB7D0
:1016C000DEB7282F30E0F901E457FF4F8491F9018C
:1016D000E056FF4F1491F901EC54FF4F04910023A1
:1016E000C9F0882321F069830E94F80A6981E02FFC
:1016F000F0E0EE0FFF1FEE52FF4FA591B4919FB7A0
:10170000F8948C91611103C01095812301C0812B45
:101710008C939FBF0F90DF91CF911F910F910895F0
:10172000CF93DF93282F30E0F901E457FF4F8491E6
:10173000F901E056FF4FD491F901EC54FF4FC491E9
:10174000CC2391F081110E94F80AEC2FF0E0EE0F0B
:10175000FF1FE853FF4FA591B4912C912D2381E0F9
:1017600090E021F480E002C080E090E0DF91CF9132
:101770000895FC01818D228D90E0805C9F4F821B3B
:1017800091098F7399270895FC01918D828D981787
:1017900031F0828DE80FF11D858D90E008958FEF77
:1017A0009FEF0895FC01918D828D981761F0828DD5
:1017B000DF01A80FB11D5D968C91928D9F5F9F7385
:1017C000928F90E008958FEF9FEF089586E59DE05A
:1017D000892B49F080E090E0892B29F00E94560D7A
:1017E00081110C9400000895FC01848DDF01A80F85
:1017F000B11DA35ABF4F2C91848D90E001968F7339
:101800009927848FA689B7892C93A089B1898C9157
:1018100080648C93938D848D981306C00288F3891D
:10182000E02D80818F7D80830895CF93DF93EC013D
:10183000888D8823C9F0EA89FB89808185FD05C0F0
:10184000A889B9898C9186FD0FC00FB607FCF5CF2A
:10185000808185FFF2CFA889B9898C9185FFEDCF72
:10186000CE010E94F40BE7CFDF91CF910895CF9284
:10187000DF92FF920F931F93CF93DF931F92CDB709
:10188000DEB76C0181E0D60158968C9358975B9631
:101890009C915B975C968C915C97981307C05096CF
:1018A000ED91FC915197808185FD2EC0F601038D4D
:1018B00010E00F5F1F4F0F731127F02EF601848D7C
:1018C000F81211C00FB607FCF9CFD6015096ED9172
:1018D000FC915197808185FFF1CFC60169830E94F9
:1018E000F40B6981EBCF838DE80FF11DE35AFF4FB5
:1018F0006083D6015B960C935B975296ED91FC91B9
:101900005397808180620CC0D6015696ED91FC9170
:10191000579760835096ED91FC9151978081806438
:10192000808381E090E00F90DF91CF911F910F9124
:10193000FF90DF90CF900895BF92CF92DF92EF9209
:10194000FF92CF93DF93EC016A017B01B22EE8890D
:10195000F98982E08083411581EE580761057105A0
:10196000A1F060E079E08DE390E0A70196010E948C
:101970001C0F21503109410951095695479537955A
:101980002795211580E1380798F0E889F9891082B8
:1019900060E874E88EE190E0A70196010E941C0FB8
:1019A0002150310941095109569547953795279599
:1019B000EC85FD853083EE85FF852083188EEC89CC
:1019C000FD89B082EA89FB89808180618083EA8910
:1019D000FB89808188608083EA89FB8980818068B7
:1019E0008083EA89FB8980818F7D8083DF91CF911D
:1019F000FF90EF90DF90CF90BF9008951F920F92CD
:101A00000FB60F9211242F938F939F93EF93FF9311
:101A1000E091C004F091C1048081E091C604F0918E
:101A2000C70482FD12C090818091C9048F5F8F73BB
:101A30002091CA04821751F0E091C904F0E0E0550A
:101A4000FB4F958F8093C90401C08081FF91EF9176
:101A50009F918F912F910F900FBE0F901F9018950F
:101A60001F920F920FB60F9211242F933F934F9313
:101A70005F936F937F938F939F93AF93BF93EF93F6
:101A8000FF9380EB94E00E94F40BFF91EF91BF91E4
:101A9000AF919F918F917F916F915F914F913F9106
:101AA0002F910F900FBE0F901F90189580EB94E030
:101AB0000E94B90B21E0892B09F420E0822F0895C0
:101AC0001092B3041092B20488EE93E0A0E0B0E06C
:101AD0008093B4049093B504A093B604B093B70474
:101AE00084E293E09093B1048093B00485EC90E09D
:101AF0009093BD048093BC0484EC90E09093BF0469
:101B00008093BE0480EC90E09093C1048093C00465
:101B100081EC90E09093C3048093C20482EC90E047
:101B20009093C5048093C40486EC90E09093C7041E
:101B30008093C6041092C9041092CA041092CB0478
:101B40001092CC04089508950E94BD0A0E94A30D2E
:101B50000E94A800C6EEDBE00E948F012097E1F30F
:101B60000E94E60BF9CFCF92DF92EF92FF920F9394
:101B70001F93CF93DF937C016A01EB0100E010E03B
:101B80000C151D0571F06991D701ED91FC91019043
:101B9000F081E02DC7010995892B19F00F5F1F4FC8
:101BA000EFCFC801DF91CF911F910F91FF90EF9080
:101BB000DF90CF9008956115710581F0DB010D90E4
:101BC0000020E9F7AD0141505109461B570BDC01DC
:101BD000ED91FC910280F381E02D099480E090E08A
:101BE00008950C94DB0D65ED72E00C94DB0D0F9302
:101BF0001F93CF93DF93EC010E94DB0D8C01CE018C
:101C00000E94F30D800F911FDF91CF911F910F91D3
:101C100008958F929F92AF92BF92DF92EF92FF92C0
:101C20000F931F93CF93DF93CDB7DEB7A1970FB676
:101C3000F894DEBF0FBECDBF7C01F42FD52ECB01B3
:101C400019A2223008F42AE08E010F5D1F4F822E68
:101C5000912CA12CB12C6F2F7D2DA50194010E94F8
:101C60001C0FF22FD32ECA01015011096A3014F44F
:101C7000E0E301C0E7E3E60FD801EC93232B242B2C
:101C8000252B49F7B801C7010E94DB0DA1960FB6BD
:101C9000F894DEBF0FBECDBFDF91CF911F910F91A2
:101CA000FF90EF90DF90BF90AF909F908F9008953E
:101CB0002115310541F4DC01ED91FC910190F08199
:101CC000E02D642F09940C94090E9A01462F50E0E0
:101CD00060E070E00C94580E0F931F93CF93DF9346
:101CE000EC019A01462F50E060E070E00E94580E2F
:101CF0008C01CE010E94F30D800F911FDF91CF91D7
:101D00001F910F9108959A01AB0160E070E00C946F
:101D1000580E089570D088F09F5790F0B92F9927EA
:101D2000B751A0F0D1F0660F771F881F991F1AF0E6
:101D3000BA95C9F712C0B13081F077D0B1E00895FB
:101D400074C0672F782F8827B85F39F0B93FCCF37C
:101D5000869577956795B395D9F73EF490958095DC
:101D6000709561957F4F8F4F9F4F0895E89409C0FC
:101D700097FB3EF490958095709561957F4F8F4FBE
:101D80009F4F9923A9F0F92F96E9BB279395F695D4
:101D9000879577956795B795F111F8CFFAF4BB0F52
:101DA00011F460FF1BC06F5F7F4F8F4F9F4F16C0B6
:101DB000882311F096E911C0772321F09EE8872F40
:101DC000762F05C0662371F096E8862F70E060E0FC
:101DD0002AF09A95660F771F881FDAF7880F969575
:101DE000879597F9089557FD9058440F551F59F05E
:101DF0005F3F71F04795880F97FB991F61F09F3FF8
:101E000079F087950895121613061406551FF2CF20
:101E10004695F1DF08C0161617061806991FF1CF70
:101E200086957105610508940895E894BB27662797
:101E30007727CB0197F90895A1E21A2EAA1BBB1BA5
:101E4000FD010DC0AA1FBB1FEE1FFF1FA217B30786
:101E5000E407F50720F0A21BB30BE40BF50B661F9C
:101E6000771F881F991F1A9469F760957095809560
:101E700090959B01AC01BD01CF010895EE0FFF1FAE
:0C1E80000590F491E02D0994F894FFCF38
:101E8C00564D4450565F317C315F564D4450560D83
:101E9C000A0043414E2042555320536869656C64D7
:101EAC0020696E6974206661696C0020496E6974E2
:101EBC002043414E2042555320536869656C642081
:101ECC00616761696E0043414E204255532053684F
:101EDC0069656C6420696E6974206F6B21004D63B9
:101EEC00703235313520636F6E66696775726520A7
:101EFC006275732073756363657366756C6C7900BA
:101F0C004D63703235313520636F6E66696775725B
:101F1C006520696E74657272757074732073756365
:101F2C0063657366756C6C79004D63703235313551
:101F3C0020636F6E666967757265207278206275B2
:101F4C00666665722073756363657366756C6C7910
:101F5C000041626F72742077616974696E672E201C
:101F6C004D61782E2077616974696E672074696D94
:101F7C006520726561636865642E004D637032354F
:101F8C0031352073776974636820746F206D6F64CA
:101F9C0065200054727920746F207265736574200B
:101FAC004D637032353135004D637032353135202B
:101FBC0072657365742073756363657366756C6C99
:101FCC007920616E642073776974636820646F2074
:101FDC006D6F64652000696E636F6D696E672000BC
:101FEC003A2000616374696F6E5F73617665526548
:101FFC0066506F73546F456570726F6D00646973D2
:10200C0061626C65506964436F6E74726F6C6C6561
:10201C007200656E61626C65506964436F6E7472B8
:10202C006F6C6C6572000000000045031803BE0263
:10203C00C602D902E802564D4450455F003A323A86
:10204C00005F564D44504500564D4450435F005F71
:10205C00564D4450430D0A004572726F723A20413E
:10206C007474656D707420746F20736574206120B6
:10207C00726561642D6F6E6C792076617269616234
:10208C006C65206F722064617461207479706520B6
:10209C006E6F7420737570706F727465640D0A00C6
:1020AC0000000000370CB30DB90BD20BC40B150C90
:0C20BC006E616E00696E66006F76660053
:107E0000112484B714BE81FFF0D085E080938100F7
:107E100082E08093C00088E18093C10086E0809377
:107E2000C20080E18093C4008EE0C9D0259A86E02C
:107E300020E33CEF91E0309385002093840096BBD3
:107E4000B09BFECF1D9AA8958150A9F7CC24DD24C4
:107E500088248394B5E0AB2EA1E19A2EF3E0BF2EE7
:107E6000A2D0813461F49FD0082FAFD0023811F036
:107E7000013811F484E001C083E08DD089C08234E0
:107E800011F484E103C0853419F485E0A6D080C0E4
:107E9000853579F488D0E82EFF2485D0082F10E0AE
:107EA000102F00270E291F29000F111F8ED06801E7
:107EB0006FC0863521F484E090D080E0DECF843638
:107EC00009F040C070D06FD0082F6DD080E0C81688
:107ED00080E7D80618F4F601B7BEE895C0E0D1E017
:107EE00062D089930C17E1F7F0E0CF16F0E7DF06D8
:107EF00018F0F601B7BEE89568D007B600FCFDCFD4
:107F0000A601A0E0B1E02C9130E011968C91119780
:107F100090E0982F8827822B932B1296FA010C0160
:107F200087BEE89511244E5F5F4FF1E0A038BF0790
:107F300051F7F601A7BEE89507B600FCFDCF97BE46
:107F4000E89526C08437B1F42ED02DD0F82E2BD052
:107F50003CD0F601EF2C8F010F5F1F4F84911BD097
:107F6000EA94F801C1F70894C11CD11CFA94CF0C13
:107F7000D11C0EC0853739F428D08EE10CD085E9AC
:107F80000AD08FE07ACF813511F488E018D01DD067
:107F900080E101D065CF982F8091C00085FFFCCF94
:107FA0009093C60008958091C00087FFFCCF809118
:107FB000C00084FD01C0A8958091C6000895E0E648
:107FC000F0E098E1908380830895EDDF803219F02E
:107FD00088E0F5DFFFCF84E1DECF1F93182FE3DFCA
:107FE0001150E9F7F2DF1F91089580E0E8DFEE27F6
:047FF000FF270994CA
:027FFE00040479
:0400000300007E007B
:00000001FF