:100000000C9464000C948C000C948C000C948C0068
:100010000C948C000C948C000C948C000C948C0030
:100020000C948C000C948C000C948C000C948C0020
:100030000C948C000C948C000C948C000C948C0010
:100040000C94E1070C948C000C94D50A0C94070BCB
:100050000C948C000C948C000C948C000C948C00F0
:100060000C947E060C948C00000000080002010035
:100070000003040700000000000000000102040863
:100080001020408001020408102001020408102002
:10009000040404040404040402020202020203032E
:1000A00003030303000000002300260029000000D2
:1000B0000000250028002B0000000000240027007D
:1000C0002A007803CE05370B11241FBECFEFD8E0EE
:1000D000DEBFCDBF12E0A0E0B1E0EEE2FAE102C087
:1000E00005900D92A437B107D9F724E0A4E7B2E058
:1000F00001C01D92AA31B207E1F710E0C8ECD0E0D0
:1001000004C02297FE010E94110DC23CD107C9F71D
:100110000E947B0B0C94150D0C9400008EBD00000A
:100120000DB407FEFDCF8EB50895CF93DF93D82F82
:10013000C62F8AE00E9431096C2F8D2FDF91CF915D
:100140000C9431091F93CF93DF93EC0160E00E9480
:10015000950080EA0E948E0080E00E948E00182F99
:1001600061E0CE010E94950064E070E080E090E0E4
:100170000E945A08812FDF91CF911F9108950F930C
:100180001F93CF93DF93082F162FEA0160E0CA0177
:100190000E94950082E00E948E00802F0E948E00B7
:1001A000812F0E948E0061E0CE010E94950064E0E4
:1001B00070E080E090E0DF91CF911F910F910C945F
:1001C0005A08CF93DF93D62FC42F48E050E0682F12
:1001D00082E30E94BF0048E050E06D2F81E30E945F
:1001E000BF0048E050E06C2F85E3DF91CF910C9485
:1001F000BF00CF93DF93D62FC42F48E050E0682F85
:1002000082E40E94BF0048E050E06D2F81E40E942C
:10021000BF0048E050E06C2F85E4DF91CF910C9453
:10022000BF00CF93DF93D62FC42F48E050E0682F54
:1002300082E50E94BF0048E050E06D2F81E50E94FA
:10024000BF0048E050E06C2F85E5DF91CF910C9422
:10025000BF0048E050E060E08AE20E94BF0048E052
:1002600050E068EB89E20E94BF0048E050E065E0A2
:1002700088E20E94BF008091A302882331F062E0EF
:1002800071E08DE793E00C94CE0B089548E050E0C8
:1002900063E08BE20E94BF008091A302882331F0CB
:1002A00064E271E08DE793E00C94CE0B08951F9308
:1002B000CF93DF93182FEB0160E0CE010E949500F1
:1002C00083E00E948E00812F0E948E0080E00E94B9
:1002D0008E00182F61E0CE010E94950064E070E06E
:1002E00080E090E00E945A0848E050E060E08CE234
:1002F0000E94BF00812FDF91CF911F910895CF926F
:10030000DF92EF92FF920F931F93CF93DF93062F0D
:10031000C3E0D0E048E050E0602F8FE00E94BF00D3
:1003200068E070E08EE00E945701182F0E942B08B1
:100330006B017C0160E070E0CB01101791F061313E
:1003400077428105910594F468E070E08EE00E94A8
:100350005701182F0E942B086C197D098E099F09DF
:10036000ECCF613177428105910564F08091A30261
:10037000882331F065E771E08DE793E00E94CE0BB2
:10038000219741F68091A302882331F06FE971E053
:100390008DE793E00E94C80B8091A302882339F077
:1003A0004AE050E0612F8DE793E00E943C0C809181
:1003B000A302882371F068E671E08DE793E0DF9196
:1003C000CF911F910F91FF90EF90DF90CF900C9401
:1003D000CE0BDF91CF911F910F91FF90EF90DF90A7
:1003E000CF900895FB01E35CFD4F48E050E0682F9B
:1003F00080810C94BF001F93CF93DF93182FEB01E4
:1004000060E0CE010E949500812F0E948E0061E085
:10041000CE010E94950064E070E080E090E0DF9102
:10042000CF911F910C945A08CF9368E070E080EC54
:100430000E94FB0168E070E08EE00E945701C82F27
:1004400067EB71E08DE793E00E94C80BC7FD0EC01B
:1004500068E070E08EE00E945701C82F4AE050E04B
:10046000682F8DE793E00E943C0CF0CF8091A302AF
:10047000882331F06CEC71E08DE793E00E94C80BAB
:100480008091A302882341F04AE050E06C2F8DE771
:1004900093E0CF910C94430CCF9108950E941402E5
:1004A0000E9429010E94460160E080E00C947F01D7
:1004B000809100019091010183309105D9F054F4AD
:1004C0008130910591F0029769F590E490939B0239
:1004D00082E01EC085309105B9F08CF0069711F5C9
:1004E00090E890939B0286E013C090E290939B0269
:1004F00081E00EC090E690939B0283E009C090E8F3
:1005000090939B0284E004C090E690939B0285E068
:1005100080939A0290939902809398029093970205
:100520008093960226E040E855E260E070E08DE7B7
:1005300093E00E94730A81E08093A4028093A30257
:1005400061E088E00E94F80861E08AE00E94F80813
:1005500060E087E00E94F80861E08DE00E94F80802
:1005600060E085E00E94F80861E083E00E94F808FE
:1005700061E086E00E94F80861E086E00E943109AF
:1005800085E00E94670990939D0280939C02809170
:100590007203882399F09FB7F89480917203813099
:1005A00059F48DB3809370032DB3809171038095BE
:1005B00082238DBB9FBF02C0909370038CE58CBDDE
:1005C0001DBC0E94AB070E944E0248E060919A0257
:1005D00080919B020E94E10048E060919802809126
:1005E00099020E94F90048E060919602809197027A
:1005F0000E94110110928E0210928D0264E670E04A
:1006000080E090E00E945A080E942B0860939F02AD
:100610007093A0028093A1029093A20267E070E021
:100620008CEA92E00C94AA058130910539F0823071
:10063000910531F0892B29F421E803C022E801C09B
:1006400024E868E070E0822F0C94FB01EF92FF92A7
:100650000F931F93CF93DF938B01C0E0D0E0E82E80
:10066000F12CCE15DF0548F4A701BE01F8018191F8
:100670008F010E94F2012196F4CF80E090E0DF919B
:10068000CF911F910F91FF90EF900C9414030F9353
:100690001F93CF93DF93C82F8B0160E0C8010E94A6
:1006A00095008C2F0E948E00CCE7D2E080E00E9463
:1006B0008E00899382E0C438D807C1F761E0C80191
:1006C0000E94950081E0DF91CF911F910F910895D5
:1006D0006823613021F468E070E082E905C062308F
:1006E00029F468E070E086E90E94470381E00895FC
:1006F00080919B028093930280919902809394024F
:10070000809197028093950280919A028093900243
:100710008091980280939102809196028093920238
:100720000895CF9310928F021092A7021092A60202
:1007300081E08093A50287E00E946709892B79F404
:1007400088E090E00E94A20080938F0263E00E9404
:10075000680369E170E080E090E00E945A084091EF
:100760007D02242F30E08091000190910101281733
:10077000390709F00AC180917C02811123C01092CF
:100780009E02E4E7F2E0119282E0EC37F807D9F735
:10079000409375021092860210928702109288028E
:1007A00068E070E08CEA92E00E94B60543E050E019
:1007B00066E872E08CEA92E00E9421058CEA92E001
:1007C0000E94CB0580917C029FEF980F953068F4D2
:1007D00090919E02913049F08093740282E0809360
:1007E000760280917D028093750264E772E088E072
:1007F0000E94260369E170E080E090E00E945A08C0
:1008000080917C02823019F580919E02C1E08C17A4
:10081000F1F06AEF71E08DE793E00E94C80B10924F
:100820008602C09387021092880268E070E08CEA2A
:1008300092E00E94B60543E050E066E872E08CEA80
:1008400092E00E9421058CEA92E00E94CB05809103
:100850007C028530E9F480919E028130C9F01092CB
:10086000860282E0809387021092880268E070E03E
:100870008CEA92E00E94B60543E050E066E872E040
:100880008CEA92E00E9421058CEA92E00E94CB055E
:1008900080917C02833069F460E086E00E94310937
:1008A00081E08093760264E172E08DE793E00E943C
:1008B000CE0B80917C02843069F461E086E00E9476
:1008C000310981E08093760269E272E08DE793E07E
:1008D0000E94CE0B80917C02813009F056C080913D
:1008E000800280938D0280917F0280938E026091BE
:1008F0008D0270918E0280918B0290918C02680F14
:10090000791F882777FD8095982F0E94890C609326
:10091000A8027093A9028093AA029093AB028091DF
:100920007E0290E090938502809384028091810200
:10093000811102C060E001C061E083E00E943109E2
:100940006091A8027091A9028091AA029091AB02D5
:100950000E945B0C60938602109287028091840251
:100960008093880268E070E08CEA92E00E94B6050D
:1009700043E050E066E872E08CEA92E00E942105D4
:100980008CEA92E0CF910C94CB05CF9108958091A1
:10099000E00290E02091E102821B910908952091EC
:1009A000E1028091E002281750F4E22FF0E0EE51CE
:1009B000FD4F808190E02F5F2093E10208958FEF3B
:1009C0009FEF0895E091E1028091E002E81730F492
:1009D000F0E0EE51FD4F808190E008958FEF9FEFA2
:1009E00008950895E091B802F091B9023097E1F0CE
:1009F0003091E1022091E0023217B0F040E0242F64
:100A000030E02617370754F4DC01A20FB31F5C91C6
:100A1000D901AE51BD4F5C934F5FF1CF1092E1020F
:100A20006093E002CB0109940895E091BA02F0913D
:100A3000BB02309729F01092BE021092BD020994B9
:100A40000895CF92DF92EF92FF920F931F93CF936F
:100A5000DF937C01CB018A012091BC02222389F023
:100A6000EB016B01C40ED51ECC15DD0569F0699153
:100A7000D701ED91FC910190F081E02DC70109951E
:100A8000F3CF642F0E944B06C801DF91CF911F91D5
:100A90000F91FF90EF90DF90CF900895CF93DF9369
:100AA0001F92CDB7DEB769832091BC022223D1F01B
:100AB0002091BD02203240F021E030E0FC01338380
:100AC000228380E090E015C08091BE02E82FF0E024
:100AD000E154FD4F998190838F5F8093BE02809394
:100AE000BD0205C061E0CE0101960E944B0681E087
:100AF00090E00F90DF91CF910895FC011382128254
:100B000048EE53E060E070E044835583668377836A
:100B100089E492E09183808308951092E10210921B
:100B2000E0021092BE021092BD020C94D205CF9347
:100B3000DF93EC01862F0E94F00585E195E00E948D
:100B4000690682EF94E00E946406CE01DF91CF91A6
:100B50000C948D050C94970581E08093BC02609302
:100B6000DF021092BE021092BD0208950C94AC05F3
:100B70000F93062F21E04091BD026FEB72E0809150
:100B8000DF020E94F4051092BE021092BD02109284
:100B9000BC020F91089561E00C94B8058CEA92E0D4
:100BA0000C947D0510926F0381E080936D03109289
:100BB0006C0361E082E10E94310961E083E10E94FF
:100BC0003109E9EBF0E080818E7F808380818D7F29
:100BD000808388E48093B80085E48093BC00089506
:100BE000880F8093BA0008950F93413208F04AC0ED
:100BF00090916F039111FCCF92E090936F0300935B
:100C00006D039FEF909302031092470340934603B6
:100C1000FB0168E473E0DB019A2F961B941718F42C
:100C200091919D93F9CF10926E0390916E03880F6E
:100C3000892B80936E0380916C03813061F4109254
:100C40006C0380916E038093BB008091BC0083FD98
:100C5000F8CF85EC01C085EE8093BC00222321F003
:100C600080916F038230E1F3809102038F3F61F046
:100C700080910203803251F080910203803341F46D
:100C800083E007C081E005C080E003C082E001C0CE
:100C900084E00F910895613298F420916F0324301D
:100CA00089F460932403FC0186E293E0DC012A2F9F
:100CB000281B261718F421912D93F9CF80E0089571
:100CC00081E0089582E0089590936903809368031A
:100CD000089590936B0380936A03089585ED809344
:100CE000BC008091BC0084FDFCCF10926F0308957E
:100CF00085EC8093BC0010926F0308951F920F92B1
:100D00000FB60F9211242F933F934F935F936F93DE
:100D10007F938F939F93AF93BF93EF93FF938091B4
:100D2000B900887F803609F49EC078F5883209F4CE
:100D30005DC090F4803109F456C038F4882309F47A
:100D4000F5C0883009F44FC0F5C0883109F44EC0B1
:100D5000803209F45FC0EEC0803409F46AC058F4F0
:100D6000803309F457C0883309F0E4C0809302034C
:100D70000E947806DFC0803509F44FC0883509F439
:100D80005DC0883409F0D6C0D3C0883909F4C4C026
:100D9000A8F4883709F467C038F4883609F463C0CA
:100DA000803709F460C0C6C0883809F4B5C08039FE
:100DB00009F45FC0803809F0BDC05BC0803B09F416
:100DC00083C038F4803A09F466C0883A09F47CC0DC
:100DD000B1C0803C09F4A4C0883C09F4A1C0883BA0
:100DE00009F487C0A7C080916E0310C0909147039B
:100DF00080914603981770F5E091470381E08E0FCC
:100E000080934703F0E0E85BFC4F80818093BB0058
:100E100085EC83C0809302038BC0E091470381E09F
:100E20008E0F809347038091BB00F0E0E85BFC4F9E
:100E3000808390914703809146036BC0E091470304
:100E400081E08E0F809347038091BB00F0E0E85B68
:100E5000FC4F808380916D0381116AC081E0809393
:100E60006C0384EA5EC083E080936F0310920303F7
:100E7000CFCF80910303803208F04EC0E09103038E
:100E800081E08E0F809303038091BB00F0E0EC5F64
:100E9000FC4F8083BDCF0E9478068091030380328F
:100EA00030F4E0910303F0E0EC5FFC4F10826091BE
:100EB000030370E0E0916803F091690384E093E03C
:100EC00009951092030336C084E080936F0310925B
:100ED000250310922403E0916A03F0916B030995B6
:100EE00080912403811105C081E080932403109236
:100EF0002603E091250381E08E0F80932503F0E027
:100F0000EA5DFC4F80818093BB0090912503809126
:100F10002403981708F47CCF85E88093BC000AC0AE
:100F200085EC8093BC0010926F0304C01092020302
:100F30000E946E06FF91EF91BF91AF919F918F91AB
:100F40007F916F915F914F913F912F910F900FBEC5
:100F50000F901F901895CF93CFB7F894809173039B
:100F6000811127C0EAE9F0E08491E6E8F0E094918D
:100F7000E82FF0E0EE0FFF1FE854FF4FA591B4916A
:100F80008C91892321F461E08AE00E94310961E0BB
:100F90008AE00E94F8088CB580618CBD8CB58064B5
:100FA0008CBD61E08DE00E94F80861E08BE00E945A
:100FB000F808809173038F5F80937303CFBFCF9145
:100FC00008951F920F920FB60F9211242F933F9303
:100FD0008F939F93AF93BF93809175039091760306
:100FE000A0917703B09178033091740323E0230F2D
:100FF0002D3720F40196A11DB11D05C026E8230F51
:101000000296A11DB11D20937403809375039093E4
:101010007603A0937703B09378038091790390913E
:101020007A03A0917B03B0917C030196A11DB11DB1
:101030008093790390937A03A0937B03B0937C030E
:10104000BF91AF919F918F913F912F910F900FBEC4
:101050000F901F9018952FB7F894609175037091B9
:10106000760380917703909178032FBF08953FB75F
:10107000F8948091790390917A03A0917B03B091C9
:101080007C0326B5A89B05C02F3F19F00196A11D32
:10109000B11D3FBF6627782F892F9A2F620F711DD0
:1010A000811D911D42E0660F771F881F991F4A9589
:1010B000D1F708958F929F92AF92BF92CF92DF9215
:1010C000EF92FF926B017C010E9437084B015C019B
:1010D000C114D104E104F104F1F00E945A0C0E9401
:1010E0003708681979098A099B09683E73408105A8
:1010F000910570F321E0C21AD108E108F10888EEE9
:10110000880E83E0981EA11CB11CC114D104E10417
:10111000F10429F7DDCFFF90EF90DF90CF90BF90E3
:10112000AF909F908F900895789484B5826084BD2D
:1011300084B5816084BD85B5826085BD85B58160DB
:1011400085BDEEE6F0E0808181608083E1E8F0E03B
:101150001082808182608083808181608083E0E86A
:10116000F0E0808181608083E1EBF0E08081846049
:101170008083E0EBF0E0808181608083EAE7F0E04B
:1011800080818460808380818260808380818160AF
:1011900080838081806880831092C10008958330AD
:1011A00081F028F4813099F08230A1F008958730E1
:1011B000A9F08830B9F08430D1F4809180008F7D1F
:1011C00003C0809180008F7780938000089584B55C
:1011D0008F7702C084B58F7D84BD08958091B00063
:1011E0008F7703C08091B0008F7D8093B000089509
:1011F000CF93DF9390E0FC01E458FF4F2491FC0172
:10120000E057FF4F8491882349F190E0880F991FA0
:10121000FC01E854FF4FA591B49182559F4FFC010A
:10122000C591D4919FB7611108C0F8948C91209515
:1012300082238C93888182230AC0623051F4F8940F
:101240008C91322F309583238C938881822B8883D5
:1012500004C0F8948C91822B8C939FBFDF91CF9127
:1012600008950F931F93CF93DF931F92CDB7DEB7EF
:10127000282F30E0F901E859FF4F8491F901E45833
:10128000FF4F1491F901E057FF4F04910023C9F07B
:10129000882321F069830E94CF086981E02FF0E064
:1012A000EE0FFF1FE255FF4FA591B4919FB7F89441
:1012B0008C91611103C01095812301C0812B8C9307
:1012C0009FBF0F90DF91CF911F910F910895CF9302
:1012D000DF93282F30E0F901E859FF4F8491F9019D
:1012E000E458FF4FD491F901E057FF4FC491CC234C
:1012F00091F081110E94CF08EC2FF0E0EE0FFF1F5C
:10130000EC55FF4FA591B4912C912D2381E090E0F5
:1013100021F480E002C080E090E0DF91CF91089559
:10132000FC01818D228D90E0805C9F4F821B910992
:101330008F7399270895FC01918D828D981731F054
:10134000828DE80FF11D858D90E008958FEF9FEF5E
:101350000895FC01918D828D981761F0828DDF01D7
:10136000A80FB11D5D968C91928D9F5F9F73928F98
:1013700090E008958FEF9FEF08958DE29BE0892B19
:1013800049F080E090E0892B29F00E942D0B81111B
:101390000C9400000895FC01848DDF01A80FB11D9D
:1013A000A35ABF4F2C91848D90E001968F7399279B
:1013B000848FA689B7892C93A089B1898C91806488
:1013C0008C93938D848D981306C00288F389E02D49
:1013D00080818F7D80830895CF93DF93EC01888D8A
:1013E0008823C9F0EA89FB89808185FD05C0A88929
:1013F000B9898C9186FD0FC00FB607FCF5CF8081AF
:1014000085FFF2CFA889B9898C9185FFEDCFCE01F8
:101410000E94CB09E7CFDF91CF910895CF92DF9261
:10142000FF920F931F93CF93DF931F92CDB7DEB739
:101430006C0181E0D60158968C9358975B969C91ED
:101440005B975C968C915C97981307C05096ED91D2
:10145000FC915197808185FD2EC0F601038D10E02F
:101460000F5F1F4F0F731127F02EF601848DF812B6
:1014700011C00FB607FCF9CFD6015096ED91FC9143
:101480005197808185FFF1CFC60169830E94CB0906
:101490006981EBCF838DE80FF11DE35AFF4F608325
:1014A000D6015B960C935B975296ED91FC91539706
:1014B000808180620CC0D6015696ED91FC915797C1
:1014C00060835096ED91FC91519780818064808378
:1014D00081E090E00F90DF91CF911F910F91FF90ED
:1014E000DF90CF900895BF92CF92DF92EF92FF925C
:1014F000CF93DF93EC016A017B01B22EE889F98971
:1015000082E08083411581EE580761057105A1F0E5
:1015100060E079E08DE390E0A70196010E94ED0C78
:10152000215031094109510956954795379527951D
:10153000211580E1380798F0E889F989108260E880
:1015400074E88EE190E0A70196010E94ED0C215015
:101550003109410951095695479537952795EC85ED
:10156000FD853083EE85FF852083188EEC89FD890B
:10157000B082EA89FB89808180618083EA89FB8966
:10158000808188608083EA89FB898081806880838C
:10159000EA89FB8980818F7D8083DF91CF91FF90E5
:1015A000EF90DF90CF90BF9008951F920F920FB6EB
:1015B0000F9211242F938F939F93EF93FF93E091BA
:1015C0008D03F0918E038081E0919303F091940359
:1015D00082FD12C09081809196038F5F8F7320915E
:1015E0009703821751F0E0919603F0E0E358FC4F27
:1015F000958F8093960301C08081FF91EF919F9119
:101600008F912F910F900FBE0F901F9018951F92E2
:101610000F920FB60F9211242F933F934F935F9326
:101620006F937F938F939F93AF93BF93EF93FF93AA
:101630008DE793E00E94CB09FF91EF91BF91AF91AD
:101640009F918F917F916F915F914F913F912F91DA
:101650000F900FBE0F901F9018958DE793E00E949A
:10166000900921E0892B09F420E0822F089510923F
:10167000800310927F0388EE93E0A0E0B0E08093B7
:10168000810390938203A0938303B093840389E53D
:1016900092E090937E0380937D0385EC90E090939D
:1016A0008A038093890384EC90E090938C03809369
:1016B0008B0380EC90E090938E0380938D0381ECFC
:1016C00090E09093900380938F0382EC90E090934E
:1016D00092038093910386EC90E09093940380931F
:1016E000930310929603109297031092980310920E
:1016F0009903089508950E9494080E947A0B0E940D
:101700005802CDEBD9E00E9491032097E1F30E94AB
:10171000BD09F9CFCF92DF92EF92FF920F931F9303
:10172000CF93DF937C016A01EB0100E010E00C1520
:101730001D0571F06991D701ED91FC910190F08147
:10174000E02DC7010995892B19F00F5F1F4FEFCFCF
:10175000C801DF91CF911F910F91FF90EF90DF9023
:10176000CF9008956115710581F0DB010D90002087
:10177000E9F7AD0141505109461B570BDC01ED91D2
:10178000FC910280F381E02D099480E090E00895BF
:101790000C94B20B65E672E00C94B20B0F931F939E
:1017A000CF93DF93EC010E94B20B8C01CE010E941B
:1017B000CA0B800F911FDF91CF911F910F91089558
:1017C0008F929F92AF92BF92DF92EF92FF920F9310
:1017D0001F93CF93DF93CDB7DEB7A1970FB6F894E1
:1017E000DEBF0FBECDBF7C01F42FD52ECB0119A2D9
:1017F000223008F42AE08E010F5D1F4F822E912CBB
:10180000A12CB12C6F2F7D2DA50194010E94ED0C10
:10181000F22FD32ECA01015011096A3014F4E0E30B
:1018200001C0E7E3E60FD801EC93232B242B252BF3
:1018300049F7B801C7010E94B20BA1960FB6F89400
:10184000DEBF0FBECDBFDF91CF911F910F91FF90F3
:10185000EF90DF90BF90AF909F908F9008952115EB
:10186000310541F4DC01ED91FC910190F081E02D16
:10187000642F09940C94E00B9A01462F50E060E02D
:1018800070E00C942F0C0F931F93CF93DF93EC0118
:101890009A01462F50E060E070E00E942F0C8C010E
:1018A000CE010E94CA0B800F911FDF91CF911F9133
:1018B0000F910895089570D088F09F5790F0B92F38
:1018C0009927B751A0F0D1F0660F771F881F991F95
:1018D0001AF0BA95C9F712C0B13081F077D0B1E0F3
:1018E000089574C0672F782F8827B85F39F0B93F03
:1018F000CCF3869577956795B395D9F73EF4909597
:101900008095709561957F4F8F4F9F4F0895E89414
:1019100009C097FB3EF490958095709561957F4F37
:101920008F4F9F4F9923A9F0F92F96E9BB279395E5
:10193000F695879577956795B795F111F8CFFAF4F5
:10194000BB0F11F460FF1BC06F5F7F4F8F4F9F4F26
:1019500016C0882311F096E911C0772321F09EE884
:10196000872F762F05C0662371F096E8862F70E0EA
:1019700060E02AF09A95660F771F881FDAF7880FC4
:101980009695879597F9089557FD9058440F551FE0
:1019900059F05F3F71F04795880F97FB991F61F0F1
:1019A0009F3F79F087950895121613061406551F68
:1019B000F2CF4695F1DF08C0161617061806991FD4
:1019C000F1CF86957105610508940895E894BB27C9
:1019D00066277727CB0197F90895A1E21A2EAA1B53
:1019E000BB1BFD010DC0AA1FBB1FEE1FFF1FA217CF
:1019F000B307E407F50720F0A21BB30BE40BF50BCC
:101A0000661F771F881F991F1A9469F76095709554
:101A1000809590959B01AC01BD01CF010895EE0F1B
:0E1A2000FF1F0590F491E02D0994F894FFCF7C
:101A2E0003004D63703235313520636F6E66696722
:101A3E007572652062757320737563636573667561
:101A4E006C6C79004D63703235313520636F6E6684
:101A5E00696775726520696E7465727275707473DC
:101A6E002073756363657366756C6C79004D637076
:101A7E003235313520636F6E666967757265207217
:101A8E00782062756666657220737563636573662A
:101A9E00756C6C790041626F72742077616974693C
:101AAE006E672E204D61782E2077616974696E679E
:101ABE002074696D6520726561636865642E004DE2
:101ACE006370323531352073776974636820746FB3
:101ADE00206D6F6465200054727920746F207265DA
:101AEE00736574204D637032353135004D6370323D
:101AFE003531352072657365742073756363657354
:101B0E0066756C6C7920616E642073776974636896
:101B1E0020646F206D6F64652000616374696F6E61
:101B2E005F73617665526566506F73546F4565706D
:101B3E00726F6D0064697361626C65506964436FA6
:101B4E006E74726F6C6C657200656E61626C65505E
:101B5E006964436F6E74726F6C6C657200363738E1
:101B6E00393A3B3C3D000000004E052105C704CF2D
:101B7E0004E204F104000000000E0A8A0B9009A989
:101B8E00099B09EC090D0A006E616E00696E660014
:041B9E006F766600F8
:00000001FF
