:100000000C9464000C948C000C948C000C948C0068
:100010000C948C000C948C000C948C000C948C0030
:100020000C948C000C948C000C948C000C948C0020
:100030000C948C000C948C000C948C000C948C0010
:100040000C9422090C948C000C94330C0C94650CC9
:100050000C948C000C948C000C948C000C948C00F0
:100060000C94BF070C948C000000000800020100F3
:100070000003040700000000000000000102040863
:100080001020408001020408102001020408102002
:10009000040404040404040402020202020203032E
:1000A00003030303000000002300260029000000D2
:1000B0000000250028002B0000000000240027007D
:1000C0002A0041061D07950C11241FBECFEFD8E072
:1000D000DEBFCDBF12E0A0E0B1E0E6E1FEE102C08C
:1000E00005900D92A23BB107D9F724E0A2EBB2E054
:1000F00001C01D92A335B207E1F710E0C8ECD0E0D3
:1001000004C02297FE010E94EF0EC23CD107C9F73E
:100110000E94D90C0C94090F0C9400000F931F93AC
:10012000CF93DF931F92CDB7DEB78C0169830E9416
:10013000F30E6981681741F0C8010F90DF91CF91EC
:100140001F910F910C94FB0E0F90DF91CF911F9197
:100150000F9108950C94F30E8EBD00000DB407FEB0
:10016000FDCF8EB50895DF92EF92FF920F931F930C
:10017000CF93DF937C01EA01D22E882777FD80950B
:10018000982F0E949B09602F8D2D0E948F0AB70126
:10019000882777FD8095982F0E949B0961E0012BAD
:1001A00009F060E08D2D0E948F0ABE01882777FD3F
:1001B0008095982FDF91CF911F910F91FF90EF9035
:1001C000DF900C949B09EF92FF920F931F93CF93B4
:1001D000DF937A01672B61F000E010E02DE030E062
:1001E00040E050E060E070E088EE93E00E94B300F1
:1001F00001E010E02DE030E044EF51E060E070E01D
:1002000084EF91E00E94B3002DE030E048EC50E034
:1002100060E070E088EC90E00E94B3002DE030E0F8
:1002200048EC50E060E070E088EC90E00E94B300A1
:100230002DE030E044EF51E060E070E084EF91E0C9
:100240000E94B300C3E0D0E001E010E02DE030E018
:1002500048EC50E060E070E088EC90E00E94B30071
:10026000219791F72DE030E044EF51E060E070E03D
:1002700084EF91E00E94B300C4E0D0E001E010E020
:100280002DE030E048EC50E060E070E088EC90E079
:100290000E94B300219791F7EF2861F000E010E091
:1002A0002DE030E040E050E060E070E088EE93E068
:1002B0000E94B300DF91CF911F910F91FF90EF90BB
:1002C0000895CF93DF93D82FC62F8AE00E948F0A1C
:1002D0006C2F8D2FDF91CF910C948F0A1F93CF93AA
:1002E000DF93EC0160E00E94610180EA0E94AC00B3
:1002F00080E00E94AC00182F61E0CE010E946101F5
:1003000064E070E080E090E00E949B09812FDF9123
:10031000CF911F9108950F931F93CF93DF93082FD1
:10032000162FEA0160E0CA010E94610182E00E948A
:10033000AC00802F0E94AC00812F0E94AC0061E0D5
:10034000CE010E94610164E070E080E090E0DF9106
:10035000CF911F910F910C949B09CF93DF93D62FD0
:10036000C42F48E050E0682F82E30E948B0148E0F0
:1003700050E06D2F81E30E948B0148E050E06C2F2C
:1003800085E3DF91CF910C948B01CF93DF93D62F30
:10039000C42F48E050E0682F82E40E948B0148E0BF
:1003A00050E06D2F81E40E948B0148E050E06C2FFB
:1003B00085E4DF91CF910C948B01CF93DF93D62FFF
:1003C000C42F48E050E0682F82E50E948B0148E08E
:1003D00050E06D2F81E50E948B0148E050E06C2FCA
:1003E00085E5DF91CF910C948B0148E050E060E00F
:1003F0008AE20E948B0148E050E068EB89E20E94AB
:100400008B0148E050E065E088E20E948B0180911A
:10041000DC02882331F064E071E086EB93E00C9419
:10042000330D089548E050E063E08BE20E948B01B9
:100430008091DC02882331F066E271E086EB93E084
:100440000C94330D08951F93CF93DF93182FEB0176
:1004500060E0CE010E94610183E00E94AC00812F28
:100460000E94AC0080E00E94AC00182F61E0CE0139
:100470000E94610164E070E080E090E00E949B09CE
:1004800048E050E060E08CE20E948B01812FDF9118
:10049000CF911F910895CF92DF92EF92FF920F9329
:1004A0001F93CF93DF93062FC3E0D0E048E050E0E6
:1004B000602F8FE00E948B0168E070E08EE00E9468
:1004C0002302182F0E946C096B017C0160E070E030
:1004D000CB01101791F0613177428105910594F4B9
:1004E00068E070E08EE00E942302182F0E946C09E1
:1004F0006C197D098E099F09ECCF61317742810526
:10050000910564F08091DC02882331F067E771E0A7
:1005100086EB93E00E94330D219741F68091DC0237
:10052000882331F061EA71E086EB93E00E94260DAA
:100530008091DC02882339F04AE050E0612F86EB9D
:1005400093E00E94150E8091DC02882371F06AE628
:1005500071E086EB93E0DF91CF911F910F91FF90B7
:10056000EF90DF90CF900C94330DDF91CF911F91DE
:100570000F91FF90EF90DF90CF900895FB01E55829
:10058000FD4F48E050E0682F80810C948B011F9351
:10059000CF93DF93182FEB0160E0CE010E94610141
:1005A000812F0E94AC0061E0CE010E94610164E0F5
:1005B00070E080E090E0DF91CF911F910C949B0957
:1005C000CF9368E070E080EC0E94C70268E070E0C2
:1005D0008EE00E942302C82F69EB71E086EB93E066
:1005E0000E94260DC7FD0EC068E070E08EE00E94FC
:1005F0002302C82F4AE050E0682F86EB93E00E9468
:10060000150EF0CF8091DC02882331F06EEC71E0A2
:1006100086EB93E00E94260D8091DC02882341F056
:100620004AE050E06C2F86EB93E0CF910C941C0EC7
:10063000CF9108950E94E0020E94F5010E941202EB
:1006400060E080E00C944B021F93CF93DF93809186
:1006500000019091010183309105B9F054F481308B
:10066000910571F0029721F590E49093D40282E015
:1006700015C08530910549F06CF0069759F018C007
:1006800090E29093D40281E009C090E69093D40266
:1006900083E004C090E89093D40284E08093D30276
:1006A0009093D2028093D1029093D0028093CF0294
:1006B00026E040E855E260E070E086EB93E00E94BF
:1006C000D10B81E08093DD028093DC0261E088E061
:1006D0000E94560A61E08AE00E94560A60E087E0C4
:1006E0000E94560A61E08DE00E94560A60E085E0B3
:1006F0000E94560A61E084E00E94560A61E085E0AB
:100700000E94560A85E00E94C50A9093D602809303
:10071000D50285E090E00E94AA00882339F1C0E06C
:10072000D0E060E0CE010E94FB0E2196C630D105DC
:10073000C1F7C0E0D0E011E0CE010E94AA00811113
:1007400010E02196C630D105B9F7111109C040E07B
:1007500050E061E070E081E090E00E94E300F7CFBC
:100760006CEF71E086EB93E00E94330D84E090E043
:100770000E94AA00C82FD0E0209741F040E050E04E
:1007800061E070E0CE010E94E300F8CF8091AB03FE
:10079000882399F09FB7F8948091AB03813059F486
:1007A0008DB38093A9032DB38091AA0380958223F2
:1007B0008DBB9FBF02C09093A9038CE58CBD1DBC6F
:1007C0000E94EC080E941A0348E06091D3028091D5
:1007D000D4020E94AD0148E06091D1028091D20222
:1007E0000E94C50148E06091CF028091D0020E9432
:1007F000DD0182E090E00E94AA008093C40283E0C1
:1008000090E00E94AA008093C5028091C40290915A
:10081000C502AA2797FDA095BA2F8093E102909375
:10082000E202A093E302B093E4028091DC02882309
:10083000A1F060E172E086EB93E00E94260D40910A
:10084000E1025091E2026091E3027091E4022AE039
:1008500030E086EB93E00E94F60D80E090E00E948D
:10086000AA008093C20281E090E00E94AA008093D7
:10087000C3028091DC02882381F064E272E086EB9F
:1008800093E00E94260D6091C2027091C3024AE07B
:1008900050E086EB93E00E94DE0D1092C7021092AA
:1008A000C60264E670E080E090E00E949B090E942E
:1008B0006C096093D8027093D9028093DA02909306
:1008C000DB0289EE92E0DF91CF911F910C94F1064B
:1008D0008130910539F08230910531F0892B29F46E
:1008E00021E803C022E801C024E868E070E0822F1C
:1008F0000C94C702EF92FF920F931F93CF93DF9355
:100900008B01C0E0D0E0E82EF12CCE15DF0548F4D5
:10091000A701BE01F80181918F010E94BE022196BC
:10092000F4CF80E090E0DF91CF911F910F91FF9085
:10093000EF900C9468040F931F93CF93DF93C82F0D
:100940008B0160E0C8010E9461018C2F0E94AC0005
:10095000CAEBD2E080E00E94AC00899382E0C23C06
:10096000D807C1F761E0C8010E94610181E0DF9111
:10097000CF911F910F9108956823613021F468E0B1
:1009800070E082E905C0623029F468E070E086E931
:100990000E949B0481E008950F931F93CF93DF93F0
:1009A0001092C8021092E0021092DF0281E0809360
:1009B000DE0287E00E94C50A892B79F488E090E086
:1009C0000E946E018093C80263E00E94BC0469E14A
:1009D00070E080E090E00E949B094091BB02242FD0
:1009E00030E080910001909101012817390709F04A
:1009F00043C18091BA0281110BC01092D702E2EB81
:100A0000F2E0119292E0EA3BF907D9F74093B30282
:100A10009FEF980F953058F49091D702913039F0AC
:100A20008093B20282E08093B4024093B30262EBFF
:100A300072E088E00E947A0469E170E080E090E072
:100A40000E949B098091BA02823009F056C09091B1
:100A5000D70281E0981709F450C08093D7028EE046
:100A60000E94100AD82FC92F682F80E090E00E94C2
:100A70008E006C2F81E090E00E948E0080E090E07C
:100A80000E94AA009091E1020091E20211E0891314
:100A900010E081E090E00E94AA00801329C0112399
:100AA00039F1D093C202C093C3028091DC02882343
:100AB00081F068E372E086EB93E00E94260D60917E
:100AC000C2027091C3024AE050E086EB93E00E94BC
:100AD000DE0D81E08093B40260E084E090E00E944B
:100AE0008E006BE472E086EB93E00E94330D05C04C
:100AF00062E084E090E00E948E008091BA0285302E
:100B000009F049C09091D70281E0981709F443C0D9
:100B10008093D7028EE00E94100AD82FC92F682F29
:100B200082E090E00E948E006C2F83E090E00E94B3
:100B30008E0082E090E00E94AA008093C40283E0CD
:100B400090E00E94AA008093C5024091C402509197
:100B5000C502662757FD6095762F4093E1025093BA
:100B6000E2026093E3027093E40282E090E00E946C
:100B7000AA0011E08D1310E083E090E00E94AA002B
:100B80008C1304C0112311F060E001C063E084E025
:100B900090E00E948E008091BA02833079F49091A7
:100BA000D70281E0981751F0109202018093B402AD
:100BB00062E572E086EB93E00E94330D8091BA0209
:100BC000843079F49091D70281E0981751F08093A6
:100BD00002018093B40267E672E086EB93E00E9424
:100BE000330D8091BA02813009F046C09091D7024E
:100BF000981709F441C08091BE028093C60280918B
:100C0000BD028093C7026091C6027091C7028091B5
:100C1000C2029091C302680F791F882777FD8095E3
:100C2000982F0E94670E6093E5027093E60280930E
:100C3000E7029093E80268E070E089EE92E00E949B
:100C40000507C091E902D091EA026091E502709136
:100C5000E6028091E7029091E8020E94340EE8815A
:100C6000F98189EE92E0099589EE92E0DF91CF91CA
:100C70001F910F910C941A07DF91CF911F910F9143
:100C800008958091D4028093CC028091D202809307
:100C9000CD028091D0028093CE028091D3028093C6
:100CA000C9028091D1028093CA028091CF028093C1
:100CB000CB0208958091190390E020911A03821BC2
:100CC0009109089520911A0380911903281750F46F
:100CD000E22FF0E0E55EFC4F808190E02F5F2093F3
:100CE0001A0308958FEF9FEF0895E0911A03809102
:100CF0001903E81730F4F0E0E55EFC4F808190E0E6
:100D000008958FEF9FEF08950895CF92DF92EF92AD
:100D1000FF920F931F93CF93DF937C01CB018A0146
:100D20002091F502222389F0EB016B01C40ED51E40
:100D3000CC15DD0569F06991D701ED91FC91019029
:100D4000F081E02DC7010995F3CF642F0E9496072B
:100D5000C801DF91CF911F910F91FF90EF90DF902D
:100D6000CF900895CF93DF931F92CDB7DEB76983FD
:100D70002091F5022223D1F02091F602203240F09A
:100D800021E030E0FC013383228380E090E015C055
:100D90008091F702E82FF0E0E850FD4F99819083B1
:100DA0008F5F8093F7028093F60205C061E0CE0169
:100DB00001960E94960781E090E00F90DF91CF911D
:100DC0000895FC011382128248EE53E060E070E067
:100DD000448355836683778387E892E09183808399
:100DE000089510921A03109219031092F7021092AC
:100DF000F6020C94210781E08093F50260931803BA
:100E00001092F7021092F60208950C94FB060F93CD
:100E1000062F21E04091F60268EF72E080911803FE
:100E20000E943F071092F7021092F6021092F5020C
:100E30000F91089561E00C94070789EE92E00C94FD
:100E4000E1061092A80381E08093A6031092A50307
:100E500061E082E10E948F0A61E083E10E948F0AD3
:100E6000E9EBF0E080818E7F808380818D7F8083BD
:100E700088E48093B80085E48093BC0008950F93C4
:100E8000413208F04AC09091A8039111FCCF92E042
:100E90009093A8030093A6039FEF90933B031092B7
:100EA000800340937F03FB0161E873E0DB019A2F2D
:100EB000961B941718F491919D93F9CF1092A70364
:100EC0009091A703880F892B8093A7038091A50396
:100ED000813061F41092A5038091A7038093BB0039
:100EE0008091BC0083FDF8CF85EC01C085EE809336
:100EF000BC00222321F08091A8038230E1F380918D
:100F00003B038F3F61F080913B03803251F0809131
:100F10003B03803341F483E007C081E005C080E0FB
:100F200003C082E001C084E00F910895613298F41B
:100F30002091A803243089F460935D03FC018FE5C0
:100F400093E0DC012A2F281B261718F421912D93FA
:100F5000F9CF80E0089581E0089582E0089585ED5D
:100F60008093BC008091BC0084FDFCCF1092A8034C
:100F7000089585EC8093BC001092A80308951F92F9
:100F80000F920FB60F9211242F933F934F935F93BD
:100F90006F937F938F939F93AF93BF93EF93FF9341
:100FA0008091B900887F803609F49EC078F5883238
:100FB00009F45DC090F4803109F456C038F48823F8
:100FC00009F4F5C0883009F44FC0F5C0883109F440
:100FD0004EC0803209F45FC0EEC0803409F46AC0AC
:100FE00058F4803309F457C0883309F0E4C0809383
:100FF0003B030E94B907DFC0803509F44FC0883534
:1010000009F45DC0883409F0D6C0D3C0883909F42A
:10101000C4C0A8F4883709F467C038F4883609F4E6
:1010200063C0803709F460C0C6C0883809F4B5C011
:10103000803909F45FC0803809F0BDC05BC0803BD7
:1010400009F483C038F4803A09F466C0883A09F498
:101050007CC0B1C0803C09F4A4C0883C09F4A1C0A4
:10106000883B09F487C0A7C08091A70310C0909166
:10107000800380917F03981770F5E091800381E0F1
:101080008E0F80938003F0E0EF57FC4F80818093B8
:10109000BB0085EC83C080933B038BC0E091800351
:1010A00081E08E0F809380038091BB00F0E0EF57CA
:1010B000FC4F80839091800380917F036BC0E0910F
:1010C000800381E08E0F809380038091BB00F0E06D
:1010D000EF57FC4F80838091A60381116AC081E0A5
:1010E0008093A50384EA5EC083E08093A8031092F6
:1010F0003C03CFCF80913C03803208F04EC0E0919A
:101100003C0381E08E0F80933C038091BB00F0E0B4
:10111000E35CFC4F8083BDCF0E94B90780913C0304
:10112000803230F4E0913C03F0E0E35CFC4F10824D
:1011300060913C0370E0E091A103F091A2038DE384
:1011400093E0099510923C0336C084E08093A80395
:1011500010925E0310925D03E091A303F091A4034B
:10116000099580915D03811105C081E080935D0345
:1011700010925F03E0915E0381E08E0F80935E0327
:10118000F0E0E15AFC4F80818093BB0090915E03B8
:1011900080915D03981708F47CCF85E88093BC00AC
:1011A0000AC085EC8093BC001092A80304C0109282
:1011B0003B030E94AF07FF91EF91BF91AF919F91C9
:1011C0008F917F916F915F914F913F912F910F90F0
:1011D0000FBE0F901F901895CF93CFB7F8948091C2
:1011E000AC03811127C0EAE9F0E08491E6E8F0E081
:1011F0009491E82FF0E0EE0FFF1FE854FF4FA59108
:10120000B4918C91892321F461E08AE00E948F0AD5
:1012100061E08AE00E94560A8CB580618CBD8CB575
:1012200080648CBD61E08DE00E94560A61E08BE035
:101230000E94560A8091AC038F5F8093AC03CFBFAE
:10124000CF9108951F920F920FB60F9211242F93F2
:101250003F938F939F93AF93BF938091AE039091F1
:10126000AF03A091B003B091B1033091AD0323E07F
:10127000230F2D3720F40196A11DB11D05C026E8CE
:10128000230F0296A11DB11D2093AD038093AE03E1
:101290009093AF03A093B003B093B1038091B203D6
:1012A0009091B303A091B403B091B5030196A11D31
:1012B000B11D8093B2039093B303A093B403B09392
:1012C000B503BF91AF919F918F913F912F910F9057
:1012D0000FBE0F901F9018952FB7F8946091AE0332
:1012E0007091AF038091B0039091B1032FBF089527
:1012F0003FB7F8948091B2039091B303A091B403E7
:10130000B091B50326B5A89B05C02F3F19F00196F3
:10131000A11DB11D3FBF6627782F892F9A2F620F1D
:10132000711D811D911D42E0660F771F881F991F57
:101330004A95D1F708958F929F92AF92BF92CF9224
:10134000DF92EF92FF926B017C010E9478094B01C2
:101350005C01C114D104E104F104F1F00E94330EE8
:101360000E947809681979098A099B09683E7340C7
:101370008105910570F321E0C21AD108E108F10856
:1013800088EE880E83E0981EA11CB11CC114D10404
:10139000E104F10429F7DDCFFF90EF90DF90CF90CB
:1013A000BF90AF909F908F900895789484B582609D
:1013B00084BD84B5816084BD85B5826085BD85B5F9
:1013C000816085BDEEE6F0E0808181608083E1E8A8
:1013D000F0E01082808182608083808181608083E0
:1013E000E0E8F0E0808181608083E1EBF0E08081E3
:1013F00084608083E0EBF0E0808181608083EAE7B5
:10140000F0E080818460808380818260808380813D
:10141000816080838081806880831092C1000895FC
:101420008E3008F08E5087702091030190E4299F40
:1014300090011124822B80937C0080917A0080643B
:1014400080937A0080917A0086FDFCCF80917800AD
:101450002091790090E0922B0895833081F028F458
:10146000813099F08230A1F008958730A9F088305A
:10147000B9F08430D1F4809180008F7D03C08091D9
:1014800080008F7780938000089584B58F7702C0A5
:1014900084B58F7D84BD08958091B0008F7703C09F
:1014A0008091B0008F7D8093B0000895CF93DF933B
:1014B00090E0FC01E458FF4F2491FC01E057FF4FFE
:1014C0008491882349F190E0880F991FFC01E8542A
:1014D000FF4FA591B49182559F4FFC01C591D491C6
:1014E0009FB7611108C0F8948C91209582238C934A
:1014F000888182230AC0623051F4F8948C91322F93
:10150000309583238C938881822B888304C0F89440
:101510008C91822B8C939FBFDF91CF9108950F9375
:101520001F93CF93DF931F92CDB7DEB7282F30E004
:10153000F901E859FF4F8491F901E458FF4F1491E4
:10154000F901E057FF4F04910023C9F0882321F0EF
:1015500069830E942D0A6981E02FF0E0EE0FFF1FE2
:10156000E255FF4FA591B4919FB7F8948C9161110A
:1015700003C01095812301C0812B8C939FBF0F90D6
:10158000DF91CF911F910F910895CF93DF93282F73
:1015900030E0F901E859FF4F8491F901E458FF4F19
:1015A000D491F901E057FF4FC491CC2391F0811100
:1015B0000E942D0AEC2FF0E0EE0FFF1FEC55FF4FBD
:1015C000A591B4912C912D2381E090E021F480E04D
:1015D00002C080E090E0DF91CF910895FC01818D01
:1015E000228D90E0805C9F4F821B91098F73992719
:1015F0000895FC01918D828D981731F0828DE80F4E
:10160000F11D858D90E008958FEF9FEF0895FC0107
:10161000918D828D981761F0828DDF01A80FB11D29
:101620005D968C91928D9F5F9F73928F90E008954D
:101630008FEF9FEF08958BE89CE0892B49F080E0C5
:1016400090E0892B29F00E948B0C81110C940000F2
:101650000895FC01848DDF01A80FB11DA35ABF4F6F
:101660002C91848D90E001968F739927848FA689A1
:10167000B7892C93A089B1898C9180648C93938DC8
:10168000848D981306C00288F389E02D80818F7DB8
:1016900080830895CF93DF93EC01888D8823C9F070
:1016A000EA89FB89808185FD05C0A889B9898C916B
:1016B00086FD0FC00FB607FCF5CF808185FFF2CF06
:1016C000A889B9898C9185FFEDCFCE010E94290BA5
:1016D000E7CFDF91CF910895CF92DF92FF920F93E2
:1016E0001F93CF93DF931F92CDB7DEB76C0181E0DC
:1016F000D60158968C9358975B969C915B975C9615
:101700008C915C97981307C05096ED91FC9151977E
:10171000808185FD2EC0F601038D10E00F5F1F4F05
:101720000F731127F02EF601848DF81211C00FB639
:1017300007FCF9CFD6015096ED91FC91519780812D
:1017400085FFF1CFC60169830E94290B6981EBCF28
:10175000838DE80FF11DE35AFF4F6083D6015B963E
:101760000C935B975296ED91FC9153978081806228
:101770000CC0D6015696ED91FC9157976083509618
:10178000ED91FC91519780818064808381E090E0AD
:101790000F90DF91CF911F910F91FF90DF90CF902D
:1017A0000895BF92CF92DF92EF92FF92CF93DF9393
:1017B000EC016A017B01B22EE889F98982E080831D
:1017C000411581EE580761057105A1F060E079E0EF
:1017D0008DE390E0A70196010E94CB0E21503109C4
:1017E000410951095695479537952795211580E16F
:1017F000380798F0E889F989108260E874E88EE18A
:1018000090E0A70196010E94CB0E215031094109B9
:1018100051095695479537952795EC85FD85308379
:10182000EE85FF852083188EEC89FD89B082EA89D8
:10183000FB89808180618083EA89FB89808188605F
:101840008083EA89FB89808180688083EA89FB89BB
:1018500080818F7D8083DF91CF91FF90EF90DF902B
:10186000CF90BF9008951F920F920FB60F92112440
:101870002F938F939F93EF93FF93E091C603F09183
:10188000C7038081E091CC03F091CD0382FD12C0AB
:1018900090818091CF038F5F8F732091D003821747
:1018A00051F0E091CF03F0E0EA54FC4F958F809324
:1018B000CF0301C08081FF91EF919F918F912F9174
:1018C0000F900FBE0F901F9018951F920F920FB69A
:1018D0000F9211242F933F934F935F936F937F93B6
:1018E0008F939F93AF93BF93EF93FF9386EB93E018
:1018F0000E94290BFF91EF91BF91AF919F918F9122
:101900007F916F915F914F913F912F910F900FBEFB
:101910000F901F90189586EB93E00E94EE0A21E04D
:10192000892B09F420E0822F08951092B9031092B8
:10193000B80388EE93E0A0E0B0E08093BA03909300
:10194000BB03A093BC03B093BD0387E992E09093DF
:10195000B7038093B60385EC90E09093C303809324
:10196000C20384EC90E09093C5038093C40380ECA1
:1019700090E09093C7038093C60381EC90E090932E
:10198000C9038093C80382EC90E09093CB038093CB
:10199000CA0386EC90E09093CD038093CC03109221
:1019A000CF031092D0031092D1031092D203089566
:1019B00008950E94D5090E94D80C0E942403CBE10F
:1019C000DBE00E94CC042097E1F30E941B0BF9CFCF
:1019D000CF92DF92EF92FF920F931F93CF93DF93FB
:1019E0007C016A01EB0100E010E00C151D0571F0AF
:1019F0006991D701ED91FC910190F081E02DC70133
:101A00000995892B19F00F5F1F4FEFCFC801DF91A8
:101A1000CF911F910F91FF90EF90DF90CF9008959D
:101A20006115710581F0DB010D900020E9F7AD0132
:101A300041505109461B570BDC01ED91FC9102808E
:101A4000F381E02D099480E090E008950C94100D4E
:101A5000DC01ED91FC910190F081E02D099463EAA5
:101A600072E00C94100D0F931F93CF93DF93EC0152
:101A70000E94100D8C01CE010E942F0D800F911F2E
:101A8000DF91CF911F910F9108958F929F92AF9206
:101A9000BF92DF92EF92FF920F931F93CF93DF934A
:101AA000CDB7DEB7A1970FB6F894DEBF0FBECDBF9E
:101AB0007C01F42FD52ECB0119A2223008F42AE0A4
:101AC0008E010F5D1F4F822E912CA12CB12C6F2FF8
:101AD0007D2DA50194010E94CB0EF22FD32ECA01B9
:101AE000015011096A3014F4E0E301C0E7E3E60FA6
:101AF000D801EC93232B242B252B49F7B801C701E0
:101B00000E94100DA1960FB6F894DEBF0FBECDBF98
:101B1000DF91CF911F910F91FF90EF90DF90BF90D9
:101B2000AF909F908F900895CF92DF92EF92FF92A7
:101B30000F931F93CF93DF93EC016A017B01211573
:101B4000310579F4E881F9810190F081E02D642F6D
:101B5000DF91CF911F910F91FF90EF90DF90CF9089
:101B600009942A303105E9F477FF1AC06DE20E942A
:101B7000280D8C0144275527BA014C195D096E09BF
:101B80007F092AE0CE010E94450D800F911FDF9151
:101B9000CF911F910F91FF90EF90DF90CF9008951C
:101BA0002AE0B701A601CE01DF91CF911F910F91DD
:101BB000FF90EF90DF90CF900C94450D0F931F9303
:101BC000CF93DF93EC019A01AB01662757FD609537
:101BD000762F0E94940D8C01CE010E942F0D800F54
:101BE000911FDF91CF911F910F9108950F931F9334
:101BF000CF93DF93EC010E94940D8C01CE010E94E3
:101C00002F0D800F911FDF91CF911F910F9108959C
:101C10002115310541F4DC01ED91FC910190F08139
:101C2000E02D642F09940C94450D9A01462F50E045
:101C300060E070E00C94080E0F931F93CF93DF9336
:101C4000EC019A01462F50E060E070E00E94080E1F
:101C50008C01CE010E942F0D800F911FDF91CF913B
:101C60001F910F910895089504D06894B1118DC00B
:101C7000089570D088F09F5790F0B92F9927B751E9
:101C8000A0F0D1F0660F771F881F991F1AF0BA9540
:101C9000C9F712C0B13081F077D0B1E0089574C0B7
:101CA000672F782F8827B85F39F0B93FCCF3869536
:101CB00077956795B395D9F73EF490958095709593
:101CC00061957F4F8F4F9F4F0895E89409C097FB10
:101CD0003EF490958095709561957F4F8F4F9F4F03
:101CE0009923A9F0F92F96E9BB279395F695879547
:101CF00077956795B795F111F8CFFAF4BB0F11F40A
:101D000060FF1BC06F5F7F4F8F4F9F4F16C08823B0
:101D100011F096E911C0772321F09EE8872F762FE6
:101D200005C0662371F096E8862F70E060E02AF027
:101D30009A95660F771F881FDAF7880F9695879513
:101D400097F9089557FD9058440F551F59F05F3F7C
:101D500071F04795880F97FB991F61F09F3F79F0CD
:101D600087950895121613061406551FF2CF46954F
:101D7000F1DF08C0161617061806991FF1CF8695D1
:101D80007105610508940895E894BB2766277727B5
:101D9000CB0197F90895A1E21A2EAA1BBB1BFD01E6
:101DA0000DC0AA1FBB1FEE1FFF1FA217B307E4073A
:101DB000F50720F0A21BB30BE40BF50B661F771F92
:101DC000881F991F1A9469F7609570958095909572
:101DD0009B01AC01BD01CF010895EE0FFF1F0590DF
:101DE000F491E02D0994F999FECF92BD81BDF89A46
:101DF000992780B50895262FF999FECF1FBA92BD75
:101E000081BD20BD0FB6F894FA9AF99A0FBE0196DB
:061E10000895F894FFCFD5
:101E1600060001014D63703235313520636F6E6601
:101E26006967757265206275732073756363657380
:101E360066756C6C79004D63703235313520636F91
:101E46006E66696775726520696E74657272757003
:101E560074732073756363657366756C6C79004D76
:101E660063703235313520636F6E666967757265EA
:101E76002072782062756666657220737563636585
:101E86007366756C6C790041626F72742077616954
:101E960074696E672E204D61782E207761697469AA
:101EA6006E672074696D6520726561636865642E6E
:101EB600004D63703235313520737769746368205D
:101EC600746F206D6F6465200054727920746F20E2
:101ED6007265736574204D637032353135004D631C
:101EE600703235313520726573657420737563639E
:101EF600657366756C6C7920616E6420737769749E
:101F0600636820646F206D6F6465200052656164AC
:101F16007920726573657420656570726F6D2E0029
:101F2600656E636F64657256616C7565206C61736E
:101F3600743A20007265665F706F732E6461746117
:101F4600206C6173743A20007265665F706F732E41
:101F560064617461206E65773A2000656570726F02
:101F66006D0064697361626C65506964436F6E7479
:101F7600726F6C6C657200656E61626C6550696447
:101F8600436F6E74726F6C6C657200363738393A0F
:101F96003B3C3D00000000B20685065A0662067507
:101FA600068406000000006C0BE80CEE0A070BF92D
:101FB6000A4A0B0D0A006E616E00696E66006F7646
:021FC6006600B3
:00000001FF
