:100000000C9464000C948C000C948C000C948C0068
:100010000C948C000C948C000C948C000C948C0030
:100020000C948C000C948C000C948C000C948C0020
:100030000C948C000C948C000C948C000C948C0010
:100040000C94C7070C948C000C94BB0A0C94ED0A1A
:100050000C948C000C948C000C948C000C948C00F0
:100060000C9464060C948C0000000008000201004F
:100070000003040700000000000000000102040863
:100080001020408001020408102001020408102002
:10009000040404040404040402020202020203032E
:1000A00003030303000000002300260029000000D2
:1000B0000000250028002B0000000000240027007D
:1000C0002A006F03B4051D0B11241FBECFEFD8E02B
:1000D000DEBFCDBF12E0A0E0B1E0EAEFF9E102C07F
:1000E00005900D92A437B107D9F724E0A4E7B2E058
:1000F00001C01D92A831B207E1F710E0C8ECD0E0D2
:1001000004C02297FE010E94F70CC23CD107C9F738
:100110000E94610B0C94FB0C0C9400008EBD00003F
:100120000DB407FEFDCF8EB50895CF93DF93D82F82
:10013000C62F8AE00E9417096C2F8D2FDF91CF9177
:100140000C9417091F93CF93DF93EC0160E00E949A
:10015000950080EA0E948E0080E00E948E00182F99
:1001600061E0CE010E94950064E070E080E090E0E4
:100170000E944008812FDF91CF911F9108950F9326
:100180001F93CF93DF93082F162FEA0160E0CA0177
:100190000E94950082E00E948E00802F0E948E00B7
:1001A000812F0E948E0061E0CE010E94950064E0E4
:1001B00070E080E090E0DF91CF911F910F910C945F
:1001C0004008CF93DF93D62FC42F48E050E0682F2C
:1001D00082E30E94BF0048E050E06D2F81E30E945F
:1001E000BF0048E050E06C2F85E3DF91CF910C9485
:1001F000BF00CF93DF93D62FC42F48E050E0682F85
:1002000082E40E94BF0048E050E06D2F81E40E942C
:10021000BF0048E050E06C2F85E4DF91CF910C9453
:10022000BF00CF93DF93D62FC42F48E050E0682F54
:1002300082E50E94BF0048E050E06D2F81E50E94FA
:10024000BF0048E050E06C2F85E5DF91CF910C9422
:10025000BF0048E050E060E08AE20E94BF0048E052
:1002600050E068EB89E20E94BF0048E050E065E0A2
:1002700088E20E94BF008091A102882331F062E0F1
:1002800071E08BE793E00C94B40B089548E050E0E4
:1002900063E08BE20E94BF008091A102882331F0CD
:1002A00064E271E08BE793E00C94B40B08951F9324
:1002B000CF93DF93182FEB0160E0CE010E949500F1
:1002C00083E00E948E00812F0E948E0080E00E94B9
:1002D0008E00182F61E0CE010E94950064E070E06E
:1002E00080E090E00E94400848E050E060E08CE24E
:1002F0000E94BF00812FDF91CF911F910895CF926F
:10030000DF92EF92FF920F931F93CF93DF93062F0D
:10031000C3E0D0E048E050E0602F8FE00E94BF00D3
:1003200068E070E08EE00E945701182F0E941108CB
:100330006B017C0160E070E0CB01101791F061313E
:1003400077428105910594F468E070E08EE00E94A8
:100350005701182F0E9411086C197D098E099F09F9
:10036000ECCF613177428105910564F08091A10263
:10037000882331F065E771E08BE793E00E94B40BCE
:10038000219741F68091A102882331F06FE971E055
:100390008BE793E00E94AE0B8091A102882339F095
:1003A0004AE050E0612F8BE793E00E94220C80919D
:1003B000A102882371F068E671E08BE793E0DF919A
:1003C000CF911F910F91FF90EF90DF90CF900C9401
:1003D000B40BDF91CF911F910F91FF90EF90DF90C1
:1003E000CF900895FB01E35CFD4F48E050E0682F9B
:1003F00080810C94BF001F93CF93DF93182FEB01E4
:1004000060E0CE010E949500812F0E948E0061E085
:10041000CE010E94950064E070E080E090E0DF9102
:10042000CF911F910C944008CF9368E070E080EC6E
:100430000E94FB0168E070E08EE00E945701C82F27
:1004400067EB71E08BE793E00E94AE0BC7FD0EC037
:1004500068E070E08EE00E945701C82F4AE050E04B
:10046000682F8BE793E00E94220CF0CF8091A102CD
:10047000882331F06CEC71E08BE793E00E94AE0BC7
:100480008091A102882341F04AE050E06C2F8BE775
:1004900093E0CF910C94290CCF9108950E941402FF
:1004A0000E9429010E94460160E080E00C947F01D7
:1004B000809100019091010183309105B9F054F4CD
:1004C0008130910571F0029721F590E490939902A3
:1004D00082E015C08530910549F06CF0069759F01F
:1004E00018C090E29093990281E009C090E6909341
:1004F000990283E004C090E89093990284E080938D
:10050000980290939702809396029093950280931D
:10051000940226E040E855E260E070E08BE793E06B
:100520000E94590A81E08093A2028093A10261E0B7
:1005300088E00E94DE0861E08AE00E94DE0860E058
:1005400087E00E94DE0861E08DE00E94DE0860E046
:1005500085E00E94DE0861E083E00E94DE0861E041
:1005600086E00E94DE0861E086E00E94170985E0CF
:100570000E944D0990939B0280939A028091700390
:10058000882399F09FB7F89480917003813059F4D3
:100590008DB380936E032DB380916F03809582237A
:1005A0008DBB9FBF02C090936E038CE58CBD1DBCBC
:1005B0000E9491070E944E0248E06091980280914B
:1005C00099020E94E10048E06091960280919702B2
:1005D0000E94F90048E060919402809195020E9487
:1005E000110110928C0210928B0264E670E080E0A0
:1005F00090E00E9440080E94110860939D02709351
:100600009E0280939F029093A00267E070E08AEAC6
:1006100092E00C9490058130910539F0823091057B
:1006200031F0892B29F421E803C022E801C024E835
:1006300068E070E0822F0C94FB01EF92FF920F9321
:100640001F93CF93DF938B01C0E0D0E0E82EF12C15
:10065000CE15DF0548F4A701BE01F80181918F0195
:100660000E94F2012196F4CF80E090E0DF91CF91DB
:100670001F910F91FF90EF900C940B030F931F931A
:10068000CF93DF93C82F8B0160E0C8010E949500D3
:100690008C2F0E948E00CCE7D2E080E00E948E007A
:1006A000899382E0C438D807C1F761E0C8010E948D
:1006B000950081E0DF91CF911F910F9108956823FC
:1006C000613021F468E070E082E905C0623029F40D
:1006D00068E070E086E90E943E0381E00895809121
:1006E0009902809391028091970280939202809167
:1006F0009502809393028091980280938E0280915C
:10070000960280938F0280919402809390020895C4
:10071000CF9310928D021092A5021092A40281E054
:100720008093A30287E00E944D09892B79F488E029
:1007300090E00E94A20080938D0263E00E945F031C
:1007400069E170E080E090E00E94400840917D0205
:10075000242F30E080910001909101012817390782
:1007600009F0F9C080917C02811121C010929C0295
:10077000E4E7F2E0119282E0EC37F807D9F7409312
:100780007502109284021092850268E070E08AEA95
:1007900092E00E949C0542E050E064E872E08AEA40
:1007A00092E00E9407058AEA92E00E94B1058091DA
:1007B0007C029FEF980F953068F490919C029130E5
:1007C00049F08093740282E08093760280917D02EA
:1007D0008093750264E772E088E00E941D0369E17E
:1007E00070E080E090E00E94400880917C028230BE
:1007F00009F580919C02C1E08C17E1F06AEF71E08D
:100800008BE793E00E94AE0B10928402C0938502A6
:1008100068E070E08AEA92E00E949C0542E050E0C5
:1008200064E872E08AEA92E00E9407058AEA92E0B0
:100830000E94B10580917C028530D9F480919C02A0
:100840008130B9F01092840282E08093850268E0E2
:1008500070E08AEA92E00E949C0542E050E064E881
:1008600072E08AEA92E00E9407058AEA92E00E941A
:10087000B10580917C02833069F460E086E00E94DB
:10088000170981E08093760264E172E08BE793E0E0
:100890000E94B40B80917C02843069F461E086E0B0
:1008A0000E94170981E08093760269E272E08BE78B
:1008B00093E00E94B40B80917C02813009F04BC020
:1008C0008091800280938B0280917F0280938C02C2
:1008D00060918B0270918C028091890290918A02C2
:1008E000680F791F882777FD8095982F0E946F0CDD
:1008F0006093A6027093A7028093A8029093A90226
:1009000080918102811102C060E001C061E083E05A
:100910000E9417096091A6027091A7028091A80217
:100920009091A9020E94410C60938402109285026A
:1009300068E070E08AEA92E00E949C0542E050E0A4
:1009400064E872E08AEA92E00E9407058AEA92E08F
:10095000CF910C94B105CF9108958091DE0290E083
:100960002091DF02821B910908952091DF0280917E
:10097000DE02281750F4E22FF0E0E052FD4F8081B4
:1009800090E02F5F2093DF0208958FEF9FEF08958F
:10099000E091DF028091DE02E81730F4F0E0E052EF
:1009A000FD4F808190E008958FEF9FEF08950895A7
:1009B000E091B602F091B7023097E1F03091DF029A
:1009C0002091DE023217B0F040E0242F30E02617ED
:1009D000370754F4DC01A20FB31F5C91D901A05278
:1009E000BD4F5C934F5FF1CF1092DF026093DE0248
:1009F000CB0109940895E091B802F091B9023097C3
:100A000029F01092BC021092BB0209940895CF9273
:100A1000DF92EF92FF920F931F93CF93DF937C01AE
:100A2000CB018A012091BA02222389F0EB016B01EC
:100A3000C40ED51ECC15DD0569F06991D701ED9185
:100A4000FC910190F081E02DC7010995F3CF642F4F
:100A50000E943106C801DF91CF911F910F91FF9045
:100A6000EF90DF90CF900895CF93DF931F92CDB793
:100A7000DEB769832091BA022223D1F02091BB0214
:100A8000203240F021E030E0FC013383228380E01B
:100A900090E015C08091BC02E82FF0E0E354FD4FD8
:100AA000998190838F5F8093BC028093BB0205C0C5
:100AB00061E0CE0101960E94310681E090E00F9046
:100AC000DF91CF910895FC011382128248EE53E02A
:100AD00060E070E0448355836683778389E492E025
:100AE0009183808308951092DF021092DE021092AB
:100AF000BC021092BB020C94B805CF93DF93EC01BB
:100B0000862F0E94D6058BEF94E00E944F0688ED59
:100B100094E00E944A06CE01DF91CF910C947305B8
:100B20000C947D0581E08093BA026093DD021092FF
:100B3000BC021092BB0208950C9492050F93062FED
:100B400021E04091BB026DEB72E08091DD020E94DA
:100B5000DA051092BC021092BB021092BA020F91F9
:100B6000089561E00C949E058AEA92E00C94630576
:100B700010926D0381E080936B0310926A0361E031
:100B800082E10E94170961E083E10E941709E9EB05
:100B9000F0E080818E7F808380818D7F808388E4F8
:100BA0008093B80085E48093BC000895880F8093FB
:100BB000BA0008950F93413208F04AC090916D0336
:100BC0009111FCCF92E090936D0300936B039FEF24
:100BD000909300031092450340934403FB0166E4A5
:100BE00073E0DB019A2F961B941718F491919D9353
:100BF000F9CF10926C0390916C03880F892B80932E
:100C00006C0380916A03813061F410926A038091D1
:100C10006C038093BB008091BC0083FDF8CF85EC12
:100C200001C085EE8093BC00222321F080916D03EA
:100C30008230E1F3809100038F3F61F080910003E7
:100C4000803251F080910003803341F483E007C08B
:100C500081E005C080E003C082E001C084E00F9124
:100C60000895613298F420916D03243089F46093E3
:100C70002203FC0184E293E0DC012A2F281B2617C3
:100C800018F421912D93F9CF80E0089581E0089523
:100C900082E008959093670380936603089590938C
:100CA000690380936803089585ED8093BC0080916B
:100CB000BC0084FDFCCF10926D03089585EC8093F9
:100CC000BC0010926D0308951F920F920FB60F9201
:100CD00011242F933F934F935F936F937F938F9341
:100CE0009F93AF93BF93EF93FF938091B900887F59
:100CF000803609F49EC078F5883209F45DC090F41E
:100D0000803109F456C038F4882309F4F5C08830DE
:100D100009F44FC0F5C0883109F44EC0803209F49F
:100D20005FC0EEC0803409F46AC058F4803309F41F
:100D300057C0883309F0E4C0809300030E945E0628
:100D4000DFC0803509F44FC0883509F45DC08834B0
:100D500009F0D6C0D3C0883909F4C4C0A8F48837D4
:100D600009F467C038F4883609F463C0803709F4A1
:100D700060C0C6C0883809F4B5C0803909F45FC0C6
:100D8000803809F0BDC05BC0803B09F483C038F4F3
:100D9000803A09F466C0883A09F47CC0B1C0803C4E
:100DA00009F4A4C0883C09F4A1C0883B09F487C0B9
:100DB000A7C080916C0310C09091450380914403BB
:100DC000981770F5E091450381E08E0F80934503FD
:100DD000F0E0EA5BFC4F80818093BB0085EC83C030
:100DE000809300038BC0E091450381E08E0F8093D8
:100DF00045038091BB00F0E0EA5BFC4F808390915B
:100E00004503809144036BC0E091450381E08E0F60
:100E1000809345038091BB00F0E0EA5BFC4F808348
:100E200080916B0381116AC081E080936A0384EA38
:100E30005EC083E080936D0310920103CFCF809159
:100E40000103803208F04EC0E091010381E08E0F73
:100E5000809301038091BB00F0E0EE5FFC4F808344
:100E6000BDCF0E945E0680910103803230F4E09194
:100E70000103F0E0EE5FFC4F10826091010370E02F
:100E8000E0916603F091670382E093E00995109288
:100E9000010336C084E080936D0310922303109207
:100EA0002203E0916803F091690309958091220380
:100EB000811105C081E08093220310922403E09108
:100EC000230381E08E0F80932303F0E0EC5DFC4F61
:100ED00080818093BB009091230380912203981717
:100EE00008F47CCF85E88093BC000AC085EC809331
:100EF000BC0010926D0304C0109200030E945406BF
:100F0000FF91EF91BF91AF919F918F917F916F91E1
:100F10005F914F913F912F910F900FBE0F901F90B7
:100F20001895CF93CFB7F89480917103811127C0A2
:100F3000EAE9F0E08491E6E8F0E09491E82FF0E04F
:100F4000EE0FFF1FE854FF4FA591B4918C918923B8
:100F500021F461E08AE00E94170961E08AE00E94C2
:100F6000DE088CB580618CBD8CB580648CBD61E081
:100F70008DE00E94DE0861E08BE00E94DE08809137
:100F800071038F5F80937103CFBFCF9108951F923C
:100F90000F920FB60F9211242F933F938F939F932D
:100FA000AF93BF938091730390917403A0917503E5
:100FB000B09176033091720323E0230F2D3720F494
:100FC0000196A11DB11D05C026E8230F0296A11DA3
:100FD000B11D209372038093730390937403A093C5
:100FE0007503B09376038091770390917803A09175
:100FF0007903B0917A030196A11DB11D8093770307
:1010000090937803A0937903B0937A03BF91AF9143
:101010009F918F913F912F910F900FBE0F901F9036
:1010200018952FB7F89460917303709174038091B1
:101030007503909176032FBF08953FB7F894809180
:10104000770390917803A0917903B0917A0326B544
:10105000A89B05C02F3F19F00196A11DB11D3FBFF0
:101060006627782F892F9A2F620F711D811D911D80
:1010700042E0660F771F881F991F4A95D1F70895A0
:101080008F929F92AF92BF92CF92DF92EF92FF9298
:101090006B017C010E941D084B015C01C114D1044D
:1010A000E104F104F1F00E94400C0E941D0868194F
:1010B00079098A099B09683E73408105910570F39F
:1010C00021E0C21AD108E108F10888EE880E83E019
:1010D000981EA11CB11CC114D104E104F10429F72C
:1010E000DDCFFF90EF90DF90CF90BF90AF909F90BB
:1010F0008F900895789484B5826084BD84B58160B2
:1011000084BD85B5826085BD85B5816085BDEEE60F
:10111000F0E0808181608083E1E8F0E010828081EE
:1011200082608083808181608083E0E8F0E080815C
:1011300081608083E1EBF0E0808184608083E0EB7C
:10114000F0E0808181608083EAE7F0E08081846064
:1011500080838081826080838081816080838081C0
:10116000806880831092C1000895833081F028F454
:10117000813099F08230A1F008958730A9F088304D
:10118000B9F08430D1F4809180008F7D03C08091CC
:1011900080008F7780938000089584B58F7702C098
:1011A00084B58F7D84BD08958091B0008F7703C092
:1011B0008091B0008F7D8093B0000895CF93DF932E
:1011C00090E0FC01E458FF4F2491FC01E057FF4FF1
:1011D0008491882349F190E0880F991FFC01E8541D
:1011E000FF4FA591B49182559F4FFC01C591D491B9
:1011F0009FB7611108C0F8948C91209582238C933D
:10120000888182230AC0623051F4F8948C91322F85
:10121000309583238C938881822B888304C0F89433
:101220008C91822B8C939FBFDF91CF9108950F9368
:101230001F93CF93DF931F92CDB7DEB7282F30E0F7
:10124000F901E859FF4F8491F901E458FF4F1491D7
:10125000F901E057FF4F04910023C9F0882321F0E2
:1012600069830E94B5086981E02FF0E0EE0FFF1F4F
:10127000E255FF4FA591B4919FB7F8948C916111FD
:1012800003C01095812301C0812B8C939FBF0F90C9
:10129000DF91CF911F910F910895CF93DF93282F66
:1012A00030E0F901E859FF4F8491F901E458FF4F0C
:1012B000D491F901E057FF4FC491CC2391F08111F3
:1012C0000E94B508EC2FF0E0EE0FFF1FEC55FF4F2A
:1012D000A591B4912C912D2381E090E021F480E040
:1012E00002C080E090E0DF91CF910895FC01818DF4
:1012F000228D90E0805C9F4F821B91098F7399270C
:101300000895FC01918D828D981731F0828DE80F40
:10131000F11D858D90E008958FEF9FEF0895FC01FA
:10132000918D828D981761F0828DDF01A80FB11D1C
:101330005D968C91928D9F5F9F73928F90E0089540
:101340008FEF9FEF089583E19BE0892B49F080E0C8
:1013500090E0892B29F00E94130B81110C9400005E
:101360000895FC01848DDF01A80FB11DA35ABF4F62
:101370002C91848D90E001968F739927848FA68994
:10138000B7892C93A089B1898C9180648C93938DBB
:10139000848D981306C00288F389E02D80818F7DAB
:1013A00080830895CF93DF93EC01888D8823C9F063
:1013B000EA89FB89808185FD05C0A889B9898C915E
:1013C00086FD0FC00FB607FCF5CF808185FFF2CFF9
:1013D000A889B9898C9185FFEDCFCE010E94B10912
:1013E000E7CFDF91CF910895CF92DF92FF920F93D5
:1013F0001F93CF93DF931F92CDB7DEB76C0181E0CF
:10140000D60158968C9358975B969C915B975C9607
:101410008C915C97981307C05096ED91FC91519771
:10142000808185FD2EC0F601038D10E00F5F1F4FF8
:101430000F731127F02EF601848DF81211C00FB62C
:1014400007FCF9CFD6015096ED91FC915197808120
:1014500085FFF1CFC60169830E94B1096981EBCF95
:10146000838DE80FF11DE35AFF4F6083D6015B9631
:101470000C935B975296ED91FC915397808180621B
:101480000CC0D6015696ED91FC915797608350960B
:10149000ED91FC91519780818064808381E090E0A0
:1014A0000F90DF91CF911F910F91FF90DF90CF9020
:1014B0000895BF92CF92DF92EF92FF92CF93DF9386
:1014C000EC016A017B01B22EE889F98982E0808310
:1014D000411581EE580761057105A1F060E079E0E2
:1014E0008DE390E0A70196010E94D30C21503109B1
:1014F000410951095695479537952795211580E162
:10150000380798F0E889F989108260E874E88EE17C
:1015100090E0A70196010E94D30C215031094109A6
:1015200051095695479537952795EC85FD8530836C
:10153000EE85FF852083188EEC89FD89B082EA89CB
:10154000FB89808180618083EA89FB898081886052
:101550008083EA89FB89808180688083EA89FB89AE
:1015600080818F7D8083DF91CF91FF90EF90DF901E
:10157000CF90BF9008951F920F920FB60F92112433
:101580002F938F939F93EF93FF93E0918B03F091B1
:101590008C038081E0919103F091920382FD12C04F
:1015A0009081809194038F5F8F73209195038217B0
:1015B00051F0E0919403F0E0E558FC4F958F809353
:1015C000940301C08081FF91EF919F918F912F91A2
:1015D0000F900FBE0F901F9018951F920F920FB68D
:1015E0000F9211242F933F934F935F936F937F93A9
:1015F0008F939F93AF93BF93EF93FF938BE793E00A
:101600000E94B109FF91EF91BF91AF919F918F918E
:101610007F916F915F914F913F912F910F900FBEEE
:101620000F901F9018958BE793E00E94760921E0B8
:10163000892B09F420E0822F089510927E031092E6
:101640007D0388EE93E0A0E0B0E080937F03909369
:101650008003A0938103B093820389E592E0909385
:101660007C0380937B0385EC90E0909388038093C8
:10167000870384EC90E090938A038093890380EC45
:1016800090E090938C0380938B0381EC90E0909397
:101690008E0380938D0382EC90E09093900380936F
:1016A0008F0386EC90E090939203809391031092C5
:1016B0009403109295031092960310929703089545
:1016C00008950E947A080E94600B0E945802C3EAA3
:1016D000D9E00E9488032097E1F30E94A309F9CF83
:1016E000CF92DF92EF92FF920F931F93CF93DF93EE
:1016F0007C016A01EB0100E010E00C151D0571F0A2
:101700006991D701ED91FC910190F081E02DC70125
:101710000995892B19F00F5F1F4FEFCFC801DF919B
:10172000CF911F910F91FF90EF90DF90CF90089590
:101730006115710581F0DB010D900020E9F7AD0125
:1017400041505109461B570BDC01ED91FC91028081
:10175000F381E02D099480E090E008950C94980BBB
:1017600065E672E00C94980B0F931F93CF93DF9371
:10177000EC010E94980B8C01CE010E94B00B800FEF
:10178000911FDF91CF911F910F9108958F929F929A
:10179000AF92BF92DF92EF92FF920F931F93CF937E
:1017A000DF93CDB7DEB7A1970FB6F894DEBF0FBEBB
:1017B000CDBF7C01F42FD52ECB0119A2223008F425
:1017C0002AE08E010F5D1F4F822E912CA12CB12C8F
:1017D0006F2F7D2DA50194010E94D30CF22FD32EE3
:1017E000CA01015011096A3014F4E0E301C0E7E3D3
:1017F000E60FD801EC93232B242B252B49F7B801B6
:10180000C7010E94980BA1960FB6F894DEBF0FBED9
:10181000CDBFDF91CF911F910F91FF90EF90DF909F
:10182000BF90AF909F908F9008952115310541F49E
:10183000DC01ED91FC910190F081E02D642F099481
:101840000C94C60B9A01462F50E060E070E00C94B7
:10185000150C0F931F93CF93DF93EC019A01462F42
:1018600050E060E070E00E94150C8C01CE010E94F7
:10187000B00B800F911FDF91CF911F910F910895B1
:10188000089570D088F09F5790F0B92F9927B751DD
:10189000A0F0D1F0660F771F881F991F1AF0BA9534
:1018A000C9F712C0B13081F077D0B1E0089574C0AB
:1018B000672F782F8827B85F39F0B93FCCF386952A
:1018C00077956795B395D9F73EF490958095709587
:1018D00061957F4F8F4F9F4F0895E89409C097FB04
:1018E0003EF490958095709561957F4F8F4F9F4FF7
:1018F0009923A9F0F92F96E9BB279395F69587953B
:1019000077956795B795F111F8CFFAF4BB0F11F4FD
:1019100060FF1BC06F5F7F4F8F4F9F4F16C08823A4
:1019200011F096E911C0772321F09EE8872F762FDA
:1019300005C0662371F096E8862F70E060E02AF01B
:101940009A95660F771F881FDAF7880F9695879507
:1019500097F9089557FD9058440F551F59F05F3F70
:1019600071F04795880F97FB991F61F09F3F79F0C1
:1019700087950895121613061406551FF2CF469543
:10198000F1DF08C0161617061806991FF1CF8695C5
:101990007105610508940895E894BB2766277727A9
:1019A000CB0197F90895A1E21A2EAA1BBB1BFD01DA
:1019B0000DC0AA1FBB1FEE1FFF1FA217B307E4072E
:1019C000F50720F0A21BB30BE40BF50B661F771F86
:1019D000881F991F1A9469F7609570958095909566
:1019E0009B01AC01BD01CF010895EE0FFF1F0590D3
:0A19F000F491E02D0994F894FFCF64
:1019FA0001004D63703235313520636F6E66696759
:101A0A007572652062757320737563636573667595
:101A1A006C6C79004D63703235313520636F6E66B8
:101A2A00696775726520696E746572727570747310
:101A3A002073756363657366756C6C79004D6370AA
:101A4A003235313520636F6E66696775726520724B
:101A5A00782062756666657220737563636573665E
:101A6A00756C6C790041626F727420776169746970
:101A7A006E672E204D61782E2077616974696E67D2
:101A8A002074696D6520726561636865642E004D16
:101A9A006370323531352073776974636820746FE7
:101AAA00206D6F6465200054727920746F2072650E
:101ABA00736574204D637032353135004D63703271
:101ACA003531352072657365742073756363657388
:101ADA0066756C6C7920616E6420737769746368CB
:101AEA0020646F206D6F64652000616374696F6E96
:101AFA005F73617665526566506F73546F456570A2
:101B0A00726F6D0064697361626C65506964436FDA
:101B1A006E74726F6C6C657200656E61626C655092
:101B2A006964436F6E74726F6C6C65720036373815
:101B3A00393A3B3C3D0000000034050705AD04B5C9
:101B4A0004C804D70400000000F409700B76098F5A
:101B5A00098109D2090D0A006E616E00696E66007C
:041B6A006F7666002C
:00000001FF
