:100000000C9476000C949E000C949E000C949E0020
:100010000C949E000C949E000C949E000C949E00E8
:100020000C949E000C949E000C949E000C949E00D8
:100030000C949E000C949E000C949E000C949E00C8
:100040000C94B4080C949E000C94A80B0C94DA0B3E
:100050000C949E000C949E000C949E000C949E00A8
:100060000C941C040C949E0005070907CC06CF06CF
:10007000D206D606DA06DD06E106E406E706EA065B
:10008000ED06F106F506F906FC06FF06000000087D
:10009000000201000003040700000000000000004F
:1000A000010204081020408001020408102001020F
:1000B00004081020040404040404040402020202DC
:1000C00002020303030303030000000023002600D1
:1000D000290000000000250028002B00000000007F
:1000E000240027002A000F016C030A0C11241FBEF4
:1000F000CFEFD8E0DEBFCDBF12E0A0E0B1E0E0EE90
:10010000FAE102C005900D92A43CB107D9F724E0B2
:10011000A4ECB2E001C01D92AD38B207E1F710E0E7
:10012000CCEED0E004C02297FE010E946A0DC63ECC
:10013000D107C9F70E944E0C0C946E0D0C94000070
:100140008EBD00000DB407FEFDCF8EB5089526E0EC
:1001500040E052EC61E070E080EF93E00E94460BDB
:1001600081E0809304038093F00261E088E00E94C4
:10017000CB0961E08DE00E94CB0960E085E00E9440
:10018000CB0961E083E00E94CB0961E086E00E9438
:10019000CB0961E086E00E94040A85E00E943A0AE9
:1001A0009093EA028093E90240E06FE08DE093E0F3
:1001B0000E942808882399F060E071E080EF93E0C6
:1001C0000E94A10C69E171E080EF93E00E94A10C14
:1001D00064E670E080E090E00E942D09E5CF64E3E2
:1001E00071E080EF93E00E94A10C10920303109243
:1001F000020364E670E080E090E00E942D090E9416
:10020000FE086093EC027093ED028093EE029093EF
:10021000EF0267E070E08FE193E00C94480368E040
:100220008DE093E00E9425088091E2028093D7023E
:100230008091E1028093D8028091E0028093D902FC
:100240008091DF028093DA028091DE028093DB02EC
:100250008091DD028093DC028091D6028093CB02F4
:100260008091D5028093CC028091D4028093CD02FC
:100270008091D3028093CE028091D2028093CF02EC
:100280008091D1028093D0028091E8028093C802CD
:100290008091E6028093C9028091E4028093CA02B1
:1002A0008091E7028093C5028091E5028093C602A7
:1002B0008091E3028093C7020895CF931092C40205
:1002C000109207031092060381E0809305031092B9
:1002D0001E038DE093E00E94A608833071F445EF81
:1002E00052E06CE073E08DE093E00E9470088DE0D6
:1002F00093E00E94AE0860931E0380911E03863037
:1003000009F0E1C09091F502911122C01092EB0228
:100310001092F1021092F3021092F4028093F20212
:100320001092FB021092FC021092FD0268E070E055
:100330008FE193E00E94540343E050E06BEF72E0E2
:100340008FE193E00E94BF028FE193E00E94690376
:100350008091F502823019F58091EB02C1E08C1793
:10036000F1F061E572E080EF93E00E949B0C109247
:10037000FB02C093FC021092FD0268E070E08FE186
:1003800093E00E94540343E050E06BEF72E08FE192
:1003900093E00E94BF028FE193E00E946903809185
:1003A000F5028530E9F48091EB028130C9F01092BA
:1003B000FB0282E08093FC021092FD0268E070E094
:1003C0008FE193E00E94540343E050E06BEF72E052
:1003D0008FE193E00E94BF028FE193E00E946903E6
:1003E0008091F502833069F460E086E00E94040A9F
:1003F00081E08093F3026BE672E080EF93E00E946D
:10040000A10C8091F502843069F461E086E00E94DD
:10041000040A81E08093F30260E872E080EF93E0E9
:100420000E94A10C8091F502813009F04CC08091AE
:10043000F6026091000370910103680F711D882717
:1004400077FD8095982F0E94E20C609308037093CB
:10045000090380930A0390930B038091F70290E0C5
:100460009093FA028093F9028091F802811102C000
:1004700060E001C061E083E00E94040A609108032B
:100480007091090380910A0390910B030E94B40CB0
:100490006093FB021092FC028091F9028093FD02AE
:1004A00068E070E08FE193E00E94540343E050E085
:1004B0006BEF72E08FE193E00E94BF028FE193E067
:1004C000CF910C946903CF9108958091530390E0EC
:1004D00020915403821B9109089520915403809127
:1004E0005303281750F4E22FF0E0EB5AFC4F8081C1
:1004F00090E02F5F2093540308958FEF9FEF0895AE
:10050000E091540380915303E81730F4F0E0EB5A84
:10051000FC4F808190E008958FEF9FEF089508953C
:10052000E0912B03F0912C033097E1F030915403CC
:10053000209153033217B0F040E0242F30E026170B
:10054000370754F4DC01A20FB31F5C91D901AB5AF9
:10055000BC4F5C934F5FF1CF1092540360935303F1
:10056000CB0109940895E0912D03F0912E0330976B
:1005700029F0109231031092300309940895CF921C
:10058000DF92EF92FF920F931F93CF93DF937C0143
:10059000CB018A0120912F03222389F0EB016B010B
:1005A000C40ED51ECC15DD0569F06991D701ED911A
:1005B000FC910190F081E02DC7010995F3CF642FE4
:1005C0000E94E903C801DF91CF911F910F91FF9025
:1005D000EF90DF90CF900895CF93DF931F92CDB728
:1005E000DEB7698320912F032223D1F020913003BD
:1005F000203240F021E030E0FC013383228380E0B0
:1006000090E015C080913103E82FF0E0EE5CFC4FE4
:10061000998190838F5F809331038093300305C06D
:1006200061E0CE0101960E94E90381E090E00F9025
:10063000DF91CF910895FC011382128248EE53E0BE
:1006400060E070E0448355836683778388E992E0B5
:100650009183808308951092540310925303109253
:100660003103109230030C947003CF93DF93EC01AD
:10067000862F0E948E0383EB92E00E94070480E99C
:1006800092E00E940204CE01DF91CF910C942B03E3
:100690000C94350381E080932F03609352031092F2
:1006A00031031092300308950C944A030F93062FE0
:1006B00021E04091300362E373E0809152030E9495
:1006C0009203109231031092300310922F030F9176
:1006D000089561E00C9456038FE193E00C941B03A2
:1006E0001092E20381E08093E0031092DF0361E067
:1006F00082E10E94040A61E083E10E94040AE9EBBE
:10070000F0E080818E7F808380818D7F808388E48C
:100710008093B80085E48093BC000895880F80938F
:10072000BA0008950F93413208F04AC09091E20355
:100730009111FCCF92E09093E2030093E0039FEFCE
:10074000909375031092BA034093B903FB016BEBCE
:1007500073E0DB019A2F961B941718F491919D93E7
:10076000F9CF1092E1039091E103880F892B8093D8
:10077000E1038091DF03813061F41092DF03809107
:10078000E1038093BB008091BC0083FDF8CF85EC32
:1007900001C085EE8093BC00222321F08091E2030A
:1007A0008230E1F3809175038F3F61F08091750392
:1007B000803251F080917503803341F483E007C0AB
:1007C00081E005C080E003C082E001C084E00F91B9
:1007D0000895613298F42091E203243089F4609303
:1007E0009703FC0189E993E0DC012A2F281B2617D7
:1007F00018F421912D93F9CF80E0089581E00895B8
:1008000082E008959093DC038093DB030895909336
:10081000DE038093DD03089585ED8093BC00809115
:10082000BC0084FDFCCF1092E203089585EC809318
:10083000BC001092E20308951F920F920FB60F9220
:1008400011242F933F934F935F936F937F938F93D5
:100850009F93AF93BF93EF93FF938091B900887FED
:10086000803609F49EC078F5883209F45DC090F4B2
:10087000803109F456C038F4882309F4F5C0883073
:1008800009F44FC0F5C0883109F44EC0803209F434
:100890005FC0EEC0803409F46AC058F4803309F4B4
:1008A00057C0883309F0E4C0809375030E94160492
:1008B000DFC0803509F44FC0883509F45DC0883445
:1008C00009F0D6C0D3C0883909F4C4C0A8F4883769
:1008D00009F467C038F4883609F463C0803709F436
:1008E00060C0C6C0883809F4B5C0803909F45FC05B
:1008F000803809F0BDC05BC0803B09F483C038F488
:10090000803A09F466C0883A09F47CC0B1C0803CE2
:1009100009F4A4C0883C09F4A1C0883B09F487C04D
:10092000A7C08091E10310C09091BA038091B903F0
:10093000981770F5E091BA0381E08E0F8093BA03A7
:10094000F0E0E554FC4F80818093BB0085EC83C0D0
:10095000809375038BC0E091BA0381E08E0F809382
:10096000BA038091BB00F0E0E554FC4F8083909186
:10097000BA038091B9036BC0E091BA0381E08E0F96
:100980008093BA038091BB00F0E0E554FC4F808374
:100990008091E00381116AC081E08093DF0384EAE3
:1009A0005EC083E08093E20310927603CFCF809104
:1009B0007603803208F04EC0E091760381E08E0F1E
:1009C000809376038091BB00F0E0E958FC4F808370
:1009D000BDCF0E94160480917603803230F4E091FE
:1009E0007603F0E0E958FC4F10826091760370E0E6
:1009F000E091DB03F091DC0387E793E00995109227
:100A0000760336C084E08093E2031092980310923C
:100A10009703E091DD03F091DE0309958091970340
:100A2000811105C081E08093970310929903E091B2
:100A3000980381E08E0F80939803F0E0E756FC4F17
:100A400080818093BB0090919803809197039817C1
:100A500008F47CCF85E88093BC000AC085EC8093C5
:100A6000BC001092E20304C0109275030E940C04B3
:100A7000FF91EF91BF91AF919F918F917F916F9176
:100A80005F914F913F912F910F900FBE0F901F904C
:100A90001895CF93CFB7F8948091E603811127C0C2
:100AA000EEEBF0E08491EAEAF0E09491E82FF0E0D8
:100AB000EE0FFF1FE452FF4FA591B4918C91892353
:100AC00021F461E08AE00E94040A61E08AE00E9469
:100AD000CB098CB580618CBD8CB580648CBD61E028
:100AE0008DE00E94CB0961E08BE00E94CB098091F0
:100AF000E6038F5F8093E603CFBFCF9108952091E7
:100B0000E503222399F03FB7F8942091E5032130C3
:100B100059F42DB32093E3034DB32091E4032095C2
:100B200024232DBB3FBF02C03093E3038CBD9DBD8A
:100B300008958091E503882361F09FB7F894209190
:100B4000E5038091E303213019F48DBB9FBF089525
:100B50008FBF0895CF93DF93EC0180E590E00E9472
:100B60007F0560E088890E94040A80EC0E94A00052
:100B700061E088890E94040A0E9499056AE070E099
:100B800080E090E0DF91CF910C942D091F93CF93DB
:100B9000DF93EC01162F80E590E00E947F0560E076
:100BA00088890E94040A83E00E94A000812F0E948D
:100BB000A00080E00E94A000182F61E088890E94B8
:100BC000040A0E949905812FDF91CF911F9108950A
:100BD000CF92DF92EF92FF920F931F93CF93DF9309
:100BE00000D0CDB7DEB78C01F62EE22E80E590E086
:100BF00049835A830E947F0560E0F80180890E9442
:100C0000040A83E00E94A0008F2D0E94A000498169
:100C1000C42E5A81D52EF12CFE1459F0F8E0FF169F
:100C200041F080E00E94A000F60181936F01F394EF
:100C3000F3CF61E0F80180890E94040A0F900F90C1
:100C4000DF91CF911F910F91FF90EF90DF90CF90A8
:100C50000C949905EF92FF921F93CF93DF931F920D
:100C6000CDB7DEB77C01162F80E590E049830E9466
:100C70007F0560E0F70180890E94040A82E00E94FB
:100C8000A000812F0E94A0004981842F0E94A00013
:100C900061E0F70180890E94040A0F90DF91CF91F3
:100CA0001F91FF90EF900C949905EF92FF921F9384
:100CB000CF93DF9300D0CDB7DEB77C01162F80E550
:100CC00090E02A8349830E947F0560E0F7018089D4
:100CD0000E94040A85E00E94A000812F0E94A000CB
:100CE0004981842F0E94A0002A81822F0E94A000A7
:100CF00061E0F70180890E94040A0F900F90DF9154
:100D0000CF911F91FF90EF900C9499051F93CF9373
:100D1000DF93EC0180E590E00E947F0560E0888928
:100D20000E94040A80EA0E94A00080E00E94A000C5
:100D3000182F61E088890E94040A0E949905812F7A
:100D4000DF91CF911F9108951F93CF93DF93EC0113
:100D5000162F262F40EE6FE00E9455066FE0CE0161
:100D60000E94C605982F907E81E0911301C080E01B
:100D7000DF91CF911F9108950F931F93CF93DF932E
:100D8000EC01462F50E0FA013197E231F105D8F538
:100D9000EC5CFF4F0C94680D17E80FEF05C017E0EF
:100DA0000AEB02C015E801EF4FE036C017E00EEB8A
:100DB00049E032C017E80FEF02C017E80AEF47E03A
:100DC0002BC017E80FEF0BC017E00EEB08C017E0C1
:100DD0000DEA05C017E80AEF02C016E800EF43E08D
:100DE0001BC017E80AEF41E017C015E801EF41E426
:100DF00013C016E800EF05C014E000EA02C012E8D4
:100E000000ED40E009C081E016C017E80FEF4FE3A6
:100E100003C017E80FEF4FE16AE2CE010E942A06F5
:100E2000402F69E2CE010E942A06412F68E2CE01DE
:100E30000E942A0680E0DF91CF911F910F910895C3
:100E40001F93CF93DF93EC0110E340E0612FCE01BD
:100E50000E942A0660E1610F40E0CE010E942A064E
:100E600060E2610F40E0CE010E942A061F5F1E3340
:100E700061F740E060E6CE010E942A0640E060E7AC
:100E8000CE01DF91CF911F910C942A06FF920F9310
:100E90001F93CF93DF93EC01F62E042F0E94AA0537
:100EA00060E8CE010E94A406182F6AE070E080E09E
:100EB00090E011110CC00E942D096F2DCE010E94EF
:100EC000BC06882339F06AE070E080E090E00E9480
:100ED0002D0928C06AE070E080E090E00E942D09B2
:100EE000CE010E94200743E06BE2CE010E942A0659
:100EF00024E044E660E6CE010E94550620E040E68C
:100F000060E7CE010E945506602FCE010E94A40624
:100F1000C82F8823C1F26AE070E080E090E00E9470
:100F20002D091C2F812FDF91CF911F910F91FF90E1
:100F30000895EF92FF920F931F93CF93DF9300D00A
:100F400000D0CDB7DEB77A018901FA011082F9012C
:100F5000108211821282138224E0AE014F5F5F4F34
:100F60000E94E8052A813981822F90E045E095951D
:100F700087954A95E1F7F8E03F9F800D911D112478
:100F8000AA2797FDA095BA2FF80180839183A283A9
:100F9000B38323FF25C062E0880F991FAA1FBB1FE0
:100FA0006A95D1F72370820F911DA11DB11DBA2F33
:100FB000A92F982F88272B81820F911DA11DB11D6C
:100FC000BA2FA92F982F88272C81820F911DA11D40
:100FD000B11D80839183A283B38381E0F701808375
:100FE0000F900F900F900F90DF91CF911F910F9165
:100FF000FF90EF9008950F931F93CF93DF93EC0131
:10100000162F9C012F5F3F4FAC010E9499076FEF95
:10101000610FCE010E94C605082F64E0610FCE016A
:101020000E94C60503FB002700F90E87282F2F70AA
:101030002D83AE014A5F5F4F65E0610FCE01DF9106
:10104000CF911F910F910C94E805FC01608B0895DE
:10105000EF92FF921F93CF93DF931F92CDB7DEB72E
:101060007C01162F61E0FC01808949830E94CB0935
:1010700061E0F70180890E94040A0E9449054981C4
:10108000612FC7010E94460791E0811101C090E0E5
:10109000892F0F90DF91CF911F91FF90EF900895CE
:1010A000CF93DF93EC010E94860680FF07C061E6C4
:1010B000CE010E94FB0720E041E008C081FF0CC088
:1010C00061E7CE010E94FB0720E042E06CE2CE0126
:1010D0000E94550680E001C084E0DF91CF91089521
:1010E000EF92FF920F931F93CF93DF9300D0CDB772
:1010F000DEB77C018B0149835A830E9450084981E5
:101100005A81811118C0D70115969C91F8019083DE
:10111000FA0120E030E0D70115964C9150E02417F9
:1011200035075CF4D701A20FB31F16969C919193DB
:101130002F5F3F4FF0CFF80110820F900F90DF919B
:10114000CF911F910F91FF90EF9008950E94860616
:10115000837011F083E0089584E00895FC016181BB
:1011600072818381948108951F920F920FB60F921E
:1011700011242F933F938F939F93AF93BF938091AD
:10118000E8039091E903A091EA03B091EB03309159
:10119000E70323E0230F2D3720F40196A11DB11D95
:1011A00005C026E8230F0296A11DB11D2093E70379
:1011B0008093E8039093E903A093EA03B093EB03D1
:1011C0008091EC039091ED03A091EE03B091EF03B9
:1011D0000196A11DB11D8093EC039093ED03A093A4
:1011E000EE03B093EF03BF91AF919F918F913F9129
:1011F0002F910F900FBE0F901F9018952FB7F89456
:101200006091E8037091E9038091EA039091EB0308
:101210002FBF08953FB7F8948091EC039091ED03B0
:10122000A091EE03B091EF0326B5A89B05C02F3F18
:1012300019F00196A11DB11D3FBF6627782F892F98
:101240009A2F620F711D811D911D42E0660F771F5D
:10125000881F991F4A95D1F708958F929F92AF9258
:10126000BF92CF92DF92EF92FF926B017C010E94BE
:101270000A094B015C01C114D104E104F104F1F04D
:101280000E94B30C0E940A09681979098A099B090E
:10129000683E73408105910570F321E0C21AD108C0
:1012A000E108F10888EE880E83E0981EA11CB11CAD
:1012B000C114D104E104F10429F7DDCFFF90EF90D0
:1012C000DF90CF90BF90AF909F908F9008957894CB
:1012D00084B5826084BD84B5816084BD85B582603B
:1012E00085BD85B5816085BDEEE6F0E080818160D9
:1012F0008083E1E8F0E010828081826080838081D9
:1013000081608083E0E8F0E0808181608083E1EBB0
:10131000F0E0808184608083E0EBF0E08081816098
:101320008083EAE7F0E0808184608083808182604E
:101330008083808181608083808180688083109237
:10134000C1000895833081F028F4813099F0823013
:10135000A1F008958730A9F08830B9F08430D1F435
:10136000809180008F7D03C0809180008F77809373
:101370008000089584B58F7702C084B58F7D84BDC9
:1013800008958091B0008F7703C08091B0008F7D69
:101390008093B0000895CF93DF9390E0FC01E05676
:1013A000FF4F2491FC01EC54FF4F8491882349F1B5
:1013B00090E0880F991FFC01E452FF4FA591B49172
:1013C0008E529F4FFC01C591D4919FB7611108C007
:1013D000F8948C91209582238C93888182230AC073
:1013E000623051F4F8948C91322F309583238C9392
:1013F0008881822B888304C0F8948C91822B8C93F3
:101400009FBFDF91CF9108950F931F93CF93DF93E9
:101410001F92CDB7DEB7282F30E0F901E457FF4F18
:101420008491F901E056FF4F1491F901EC54FF4FFC
:1014300004910023C9F0882321F069830E94A20946
:101440006981E02FF0E0EE0FFF1FEE52FF4FA591F4
:10145000B4919FB7F8948C91611103C010958123CA
:1014600001C0812B8C939FBF0F90DF91CF911F9173
:101470000F910895CF93DF93282F30E0F901E457BF
:10148000FF4F8491F901E056FF4FD491F901EC54DC
:10149000FF4FC491CC2391F081110E94A209EC2F3F
:1014A000F0E0EE0FFF1FE853FF4FA591B4912C9190
:1014B0002D2381E090E021F480E002C080E090E004
:1014C000DF91CF910895FC01818D228D90E0805CA9
:1014D0009F4F821B91098F7399270895FC01918D6D
:1014E000828D981731F0828DE80FF11D858D90E087
:1014F00008958FEF9FEF0895FC01918D828D9817CD
:1015000061F0828DDF01A80FB11D5D968C91928DE7
:101510009F5F9F73928F90E008958FEF9FEF0895E4
:1015200080E09CE0892B49F080E090E0892B29F055
:101530000E94000C81110C9400000895FC01848D20
:10154000DF01A80FB11DA35ABF4F2C91848D90E0ED
:1015500001968F739927848FA689B7892C93A089C8
:10156000B1898C9180648C93938D848D981306C07F
:101570000288F389E02D80818F7D80830895CF9349
:10158000DF93EC01888D8823C9F0EA89FB8980818B
:1015900085FD05C0A889B9898C9186FD0FC00FB65D
:1015A00007FCF5CF808185FFF2CFA889B9898C919E
:1015B00085FFEDCFCE010E949E0AE7CFDF91CF914C
:1015C0000895CF92DF92FF920F931F93CF93DF93F3
:1015D0001F92CDB7DEB76C0181E0D60158968C938F
:1015E00058975B969C915B975C968C915C9798134F
:1015F00007C05096ED91FC915197808185FD2EC0DA
:10160000F601038D10E00F5F1F4F0F731127F02EAF
:10161000F601848DF81211C00FB607FCF9CFD60180
:101620005096ED91FC915197808185FFF1CFC601D5
:1016300069830E949E0A6981EBCF838DE80FF11DBB
:10164000E35AFF4F6083D6015B960C935B975296EB
:10165000ED91FC915397808180620CC0D601569623
:10166000ED91FC91579760835096ED91FC915197C5
:1016700080818064808381E090E00F90DF91CF9142
:101680001F910F91FF90DF90CF900895BF92CF925E
:10169000DF92EF92FF92CF93DF93EC016A017B011F
:1016A000B22EE889F98982E08083411581EE5807DE
:1016B00061057105A1F060E079E08DE390E0A7019C
:1016C00096010E94460D2150310941095109569554
:1016D000479537952795211580E1380798F0E889D7
:1016E000F989108260E874E88EE190E0A701960124
:1016F0000E94460D215031094109510956954795DF
:1017000037952795EC85FD853083EE85FF85208311
:10171000188EEC89FD89B082EA89FB89808180611D
:101720008083EA89FB89808188608083EA89FB89DC
:10173000808180688083EA89FB8980818F7D8083B6
:10174000DF91CF91FF90EF90DF90CF90BF90089501
:101750001F920F920FB60F9211242F938F939F9386
:10176000EF93FF93E0910004F09101048081E091F8
:101770000604F091070482FD12C090818091090453
:101780008F5F8F7320910A04821751F0E091090452
:10179000F0E0E051FC4F958F8093090401C08081F7
:1017A000FF91EF919F918F912F910F900FBE0F900E
:1017B0001F9018951F920F920FB60F9211242F931E
:1017C0003F934F935F936F937F938F939F93AF93C9
:1017D000BF93EF93FF9380EF93E00E949E0AFF91E7
:1017E000EF91BF91AF919F918F917F916F915F9199
:1017F0004F913F912F910F900FBE0F901F90189512
:1018000080EF93E00E94630A21E0892B09F420E035
:10181000822F08951092F3031092F20388EE93E062
:10182000A0E0B0E08093F4039093F503A093F60357
:10183000B093F70388EA92E09093F1038093F0036A
:1018400085EC90E09093FD038093FC0384EC90E0A2
:101850009093FF038093FE0380EC90E0909301044B
:101860008093000481EC90E0909303048093020441
:1018700082EC90E0909305048093040486EC90E061
:1018800090930704809306041092090410920A04AE
:1018900010920B0410920C04089508950E94670999
:1018A0000E944D0C0E94A700C0E9DAE00E945D0191
:1018B0002097E1F30E94900AF9CFCF92DF92EF9246
:1018C000FF920F931F93CF93DF937C016A01EB018B
:1018D00000E010E00C151D0571F06991D701ED9144
:1018E000FC910190F081E02DC7010995892B19F039
:1018F0000F5F1F4FEFCFC801DF91CF911F910F9165
:10190000FF90EF90DF90CF9008956115710581F001
:10191000DB010D900020E9F7AD0141505109461B54
:10192000570BDC01ED91FC910280F381E02D0994CD
:1019300080E090E008950C94850C64EB72E00C94C8
:10194000850C0F931F93CF93DF93EC010E94850CBE
:101950008C01CE010E949D0C800F911FDF91CF91D1
:101960001F910F910895089570D088F09F5790F0BF
:10197000B92F9927B751A0F0D1F0660F771F881FB4
:10198000991F1AF0BA95C9F712C0B13081F077D01B
:10199000B1E0089574C0672F782F8827B85F39F0B9
:1019A000B93FCCF3869577956795B395D9F73EF413
:1019B00090958095709561957F4F8F4F9F4F0895BB
:1019C000E89409C097FB3EF49095809570956195D9
:1019D0007F4F8F4F9F4F9923A9F0F92F96E9BB278F
:1019E0009395F695879577956795B795F111F8CF0B
:1019F000FAF4BB0F11F460FF1BC06F5F7F4F8F4F76
:101A00009F4F16C0882311F096E911C0772321F06B
:101A10009EE8872F762F05C0662371F096E8862F03
:101A200070E060E02AF09A95660F771F881FDAF75A
:101A3000880F9695879597F9089557FD9058440F0C
:101A4000551F59F05F3F71F04795880F97FB991F1D
:101A500061F09F3F79F087950895121613061406DA
:101A6000551FF2CF4695F1DF08C016161706180667
:101A7000991FF1CF86957105610508940895E89442
:101A8000BB2766277727CB0197F90895A1E21A2E85
:101A9000AA1BBB1BFD010DC0AA1FBB1FEE1FFF1F12
:101AA000A217B307E407F50720F0A21BB30BE40B62
:101AB000F50B661F771F881F991F1A9469F76095A9
:101AC0007095809590959B01AC01BD01CF01089563
:101AD000EE0FFF1F0590F491E02D0994F894FFCFCD
:101AE00043414E2042555320536869656C64206918
:101AF0006E6974206661696C0020496E69742043C8
:101B0000414E2042555320536869656C64206167DB
:101B100061696E0043414E20425553205368696508
:101B20006C6420696E6974206F6B21004D637032A4
:101B300035313520636F6E66696775726520627531
:101B4000732073756363657366756C6C79004D63A0
:101B5000703235313520636F6E6669677572652046
:101B6000696E7465727275707473207375636365E2
:101B70007366756C6C79004D637032353135206356
:101B80006F6E666967757265207278206275666629
:101B900065722073756363657366756C6C7900415B
:101BA000626F72742077616974696E672E204D616F
:101BB000782E2077616974696E672074696D65207D
:101BC000726561636865642E004D6370323531352E
:101BD0002073776974636820746F206D6F6465206B
:101BE0000054727920746F207265736574204D63A0
:101BF0007032353135004D637032353135207265C4
:101C00007365742073756363657366756C6C792096
:101C1000616E642073776974636820646F206D6FF0
:101C200064652000696E636F6D696E6720003A20FD
:101C300000616374696F6E5F7361766552656650AB
:101C40006F73546F456570726F6D00646973616284
:101C50006C65506964436F6E74726F6C6C65720072
:101C6000656E61626C65506964436F6E74726F6C0F
:101C70006C65720000000000EC02BF0265026D029C
:101C800080028F0200000000E10A5D0C630A7C0AFA
:101C90006E0ABF0A0D0A006E616E00696E66006F03
:041CA0007666000064
:107E0000112484B714BE81FFF0D085E080938100F7
:107E100082E08093C00088E18093C10086E0809377
:107E2000C20080E18093C4008EE0C9D0259A86E02C
:107E300020E33CEF91E0309385002093840096BBD3
:107E4000B09BFECF1D9AA8958150A9F7CC24DD24C4
:107E500088248394B5E0AB2EA1E19A2EF3E0BF2EE7
:107E6000A2D0813461F49FD0082FAFD0023811F036
:107E7000013811F484E001C083E08DD089C08234E0
:107E800011F484E103C0853419F485E0A6D080C0E4
:107E9000853579F488D0E82EFF2485D0082F10E0AE
:107EA000102F00270E291F29000F111F8ED06801E7
:107EB0006FC0863521F484E090D080E0DECF843638
:107EC00009F040C070D06FD0082F6DD080E0C81688
:107ED00080E7D80618F4F601B7BEE895C0E0D1E017
:107EE00062D089930C17E1F7F0E0CF16F0E7DF06D8
:107EF00018F0F601B7BEE89568D007B600FCFDCFD4
:107F0000A601A0E0B1E02C9130E011968C91119780
:107F100090E0982F8827822B932B1296FA010C0160
:107F200087BEE89511244E5F5F4FF1E0A038BF0790
:107F300051F7F601A7BEE89507B600FCFDCF97BE46
:107F4000E89526C08437B1F42ED02DD0F82E2BD052
:107F50003CD0F601EF2C8F010F5F1F4F84911BD097
:107F6000EA94F801C1F70894C11CD11CFA94CF0C13
:107F7000D11C0EC0853739F428D08EE10CD085E9AC
:107F80000AD08FE07ACF813511F488E018D01DD067
:107F900080E101D065CF982F8091C00085FFFCCF94
:107FA0009093C60008958091C00087FFFCCF809118
:107FB000C00084FD01C0A8958091C6000895E0E648
:107FC000F0E098E1908380830895EDDF803219F02E
:107FD00088E0F5DFFFCF84E1DECF1F93182FE3DFCA
:107FE0001150E9F7F2DF1F91089580E0E8DFEE27F6
:047FF000FF270994CA
:027FFE00040479
:0400000300007E007B
:00000001FF